:020000040000FA
:10000000801A00108D01000095010000970100008A
:10001000990100009B0100009D010000000000000C
:100020000000000000000000000000009F01000030
:10003000A101000000000000A3010000F111000078
:10004000A7010000A7010000A7010000A701000010
:10005000A70100005113000001140000A7010000D7
:10006000A7010000A7010000A7010000A7010000F0
:10007000A7010000A7010000A7010000A7010000E0
:10008000A7010000A7010000A7010000A7010000D0
:10009000A7010000A7010000A7010000A7010000C0
:1000A000C9190000A7010000A7010000A701000076
:1000B000A7010000A7010000A7010000A7010000A0
:1000C000A7010000A7010000A701000000F002F84E
:1000D00000F044F80AA090E8000C82448344AAF19E
:1000E0000107DA4501D100F039F8AFF2090EBAE89C
:1000F0000F0013F0010F18BFFB1A43F0010318475C
:10010000DC250000FC250000103A24BF78C878C127
:10011000FAD8520724BF30C830C144BF04680C600D
:10012000704700000023002400250026103A28BF55
:1001300078C1FBD8520728BF30C148BF0B60704759
:10014000002070471FB59DE8030000F0BFFB00F0E2
:10015000BDF91FBD10B500F022FA10BD00F085FA00
:100160001146FFF7EFFF02F001F900F089FB03B43D
:10017000FFF7F0FF03BC00F01BFD000044F21B1171
:1001800000FB01F00138FDD17047000009488047AD
:1001900009480047FEE7FEE7FEE7FEE7FEE7FEE769
:1001A000FEE7FEE7FEE7FEE704480549054A064B81
:1001B0007047000009120000CD00000080140010FC
:1001C000801A001080160010801600100FB4044929
:1001D00010B503AA029800F06FF810BC5DF814FB8C
:1001E0007813001010B5431C02E010F8011B71B128
:1001F0008107FAD14FF0013202C88C1A8C4314EAFD
:10020000C211F9D0C01A0A0603D0C01E10BDC01A10
:1002100010BD0A0401D0801E10BD0902FCD0401E92
:1002200010BD02F0FF0343EA032242EA024200F05B
:100230002DB94FF0000200B513469446964620397A
:1002400022BFA0E80C50A0E80C50B1F12001BFF48F
:10025000F7AF090728BFA0E80C5048BF0CC05DF8F5
:1002600004EB890028BF40F8042B08BF704748BF43
:1002700020F8022B11F0804F18BF00F8012B7047B7
:10028000704770477047000001694A1C0261087896
:10029000704700B58FB0CDE90131002105910549C6
:1002A0007944CDE903101146684600F029F80FB0F3
:1002B00000BD0000E5FFFFFF074B70B50D467B4416
:1002C000FFF7E7FF0446284600F008F810B14FF0AA
:1002D000FF3070BD204670BD73200000007B00F031
:1002E00080007047004870472014001010B500F0DF
:1002F00045FCBDE8104000F03BBC7047FFFFFFFF2E
:100300002DE9F05F894604464FF0000ADFF874B12A
:10031000FB44C0F820A02046E1688847002874D03C
:10032000252806D0D4E901219047206A401C20628C
:10033000F1E700265F462046E16888472028054609
:1003400007DB312D05D2781910F8200C08B10643CF
:10035000F1E7B00701D526F00406C4F81CA0002779
:10036000C4F818A02A2D09D0284601F0DBFF38B3C5
:1003700004EB8708303DC8F8185019E059F8041B01
:10038000204604EB87029161E1688847012F05460A
:1003900018D1E069002820DA26F020061DE0D8F800
:1003A000180000EB800005EB40003038C8F818005A
:1003B0002046E1688847054601F0B4FF0028EED1E9
:1003C000012F0AD02E2D08D12046E16888477F1CD6
:1003D0000546022F46F02006C4DBA069002803DA98
:1003E000404246F00106A061F00701D026F0100659
:1003F0006C2D0BD0682D09D04C2D39D06A2D35D0FD
:10040000742D35D07A2D33D016E038E0E1682F46D0
:1004100020468847B842054609D16C2F26D04FF4B4
:100420008060E168064320468847054604E06C2F5B
:100430001AD04FF4807006430DB3A5F1410019287E
:1004400002D8203546F400664A46294620462660F2
:100450004E46FFF775FE80B101280BD0F61D26F041
:10046000070000F1080956E74020E4E78020D8E7BC
:100470000020D6E706F104094DE7284652E7206A36
:10048000BDE8F09FA82300004FF000020429C0F04F
:10049000128010F0030C3FF4CEAECCF1040CBCF192
:1004A000020F18BF00F8012BA8BF20F8022BA1EB08
:1004B0000C01FFF7C0BE5FEAC17C24BF00F8012B2E
:1004C00000F8012B48BF00F8012B704710B54248D7
:1004D0005421FFF7AEFE41485421FFF7AAFE4048E1
:1004E0005421FFF7A6FE3F493B483C4A3F4B08607A
:1004F0003D490A603A491960531C0365481C106560
:10050000012008653B48344A39A1784400F01CF9C1
:1005100020B9384878440A38FFF7E8FE37482F4AB0
:1005200035A1784400F010F920B9344878440A38ED
:10053000FFF7DCFE32482A4A2FA1784400F004F984
:1005400020B92F4878440A38FFF7D0FE40232248CC
:10055000DC000021224600F0D4F820B12548784480
:100560005438FFF7C3FE1D4822464023002100F007
:10057000C8F820B1214878445438FFF7B7FE18482E
:1005800022461023002100F0BCF8002806D01C48A9
:100590007844BDE810405638FFF7A8BE10BD10489B
:1005A00070B5006D20F001040B4800F043F90B48D2
:1005B00000F040F90A4800F03DF909E0206D20F014
:1005C0000105204600F036F9204600F073F82C466D
:1005D000002CF3D170BD000024130010781300101C
:1005E000CC1300104C0000105000001054000010FC
:1005F00072000000BF21000077000000AB21000066
:10060000972100000EB5CDE90001FFF7EBFD029048
:1006100069460120ABBE0EBD08B5694600900220B8
:10062000ABBE08BD1FB58DE8070069460520ABBE0F
:1006300004B010BD1FB58DE80F0069460620ABBEA3
:10064000F6E708B5694600900920ABBE08BD1CB5A9
:10065000CDE9000169460A20ABBE1CBD704708B554
:10066000694600900C20ABBE08BD7546FFF73AFE08
:10067000AE4605006946534620F00700854618B08F
:1006800020B5FFF791FDBDE820404FF000064FF088
:1006900000074FF000084FF0000B21F00701AC46B7
:1006A000ACE8C009ACE8C009ACE8C009ACE8C009D6
:1006B0008D46704770B50446051F00F0EBF80068E2
:1006C000002C14BF446870BD002C18BFAC423CBF66
:1006D00020466468F8D301680A18AA4218BF45602A
:1006E00003D12A6805461144016028684119A142D6
:1006F0001CBF6C6070BD6168696021680844286037
:1007000070BD70B5C468A50713D0650211D4B2F5E9
:10071000807F09D0B2F5007F06D0B2F5806F08D196
:10072000012300F1240106E05D1E6FF07F46B54213
:1007300001D3012070BD0161C361416024F4706187
:100740001143C160002070BD2DE9F0410C46074601
:100750001646104600F06EF82078611C61280AD019
:10076000722802D077283CD102E00125002405E060
:100770000225042402E0082448F2020511F8010BC6
:100780002B2806D0622809D011F8010C74280AD051
:100790000BE045F0030544F00204EFE745F00405E3
:1007A00044F00104EAE744F0100438462146FFF71C
:1007B00029FF411C15D00021316171604FF4007197
:1007C000F560F1617061200704D5304602220021F6
:1007D00000F0DAF8306D40F0010030653046BDE8D9
:1007E000F0810020FBE72DE9F0410D460646104C54
:1007F000206DC10704D0410804D020F00104F7E7C0
:1008000022460EE0542000F090F807000ED0206D34
:1008100047F001010843542120653846FFF709FDE0
:100820003A4629463046BDE8F0418DE70020D6E73C
:10083000241300102DE9F04704464FF000094FF053
:10084000FF37C568D4E90486A80707D0204600F022
:100850004BF93046FFF7E0FE002802DA3846BDE8E3
:10086000F087280502D54046FFF724FF4C2120469B
:10087000FFF7DFFC206D20F0010020654846EEE721
:1008800010B50446AFF300802046BDE81040FFF7E6
:100890006EBC000000487047281400107047704775
:1008A0007047704738B504460A4600206946AFF3E2
:1008B0000080002808BF38BD02460099204600F09D
:1008C00084F9012038BD012000F0D3B9F8B5AFF3A9
:1008D0000080054600200C46102000BF0646A819DF
:1008E000A0420DD9324669460020AFF300800700D0
:1008F00008BF00F0BEF90098A04218BF0546C41911
:10090000FFF7C8FF05600746F01D20F007004619F5
:10091000284600F053F9B44208BFF8BDA21B314687
:100920003868BDE8F84000F050B970B50646FFF7EA
:10093000B1FF056806F10B0020F00704B4429CBF2C
:10094000002070BD2B466A68BAB11068A04210D36F
:1009500004F1080188423CBF5068586007D35168D1
:10096000101941601168091B016058601460101D66
:1009700070BD13465268002AE7D121462846FFF78A
:1009800091FF0028DED170BD2DE9F04104461646E6
:100990000D464769007B80072ED03846FFF751FE91
:1009A00050BB3EB3012E02D0022E25D104E02046DA
:1009B00000F025F905441DE03846FFF750FEE168D8
:1009C000002841F01001E16005DA204600F058F8F7
:1009D0000120BDE8F081C9030BD56268E16A91424C
:1009E00000D81146A26911442269891A814200DDAA
:1009F00008460544002D01DA0220EAE7E16A606852
:100A0000E268814206D29103E06203D522F400310C
:100A100041F01002A6690027AE4213DCE16A814270
:100A200001D90B4600E0034603EB060C2369ACEB4F
:100A3000030CAC4506DD814201D98C4600E08446BA
:100A40009C4505D1A760276042F02000A5620DE01B
:100A5000AD1BE669AE1B8142A66000D90846C01AEC
:100A6000281A20605819606022F0200003490840CD
:100A7000E060002084F84870ABE70000BFCFD7FFEC
:100A8000C16821F4001141F08001C1600021816042
:100A9000016070472DE9F047814614460E464FF03D
:100AA000FF383248D5685769054209D03846A169F0
:100AB000FFF7CDFD002811DB2C48C0430540E56061
:100AC0002B46324649463846FFF7ACFDA16920F077
:100AD0000042B21A11440028A16103D02046FFF75A
:100AE000CFFF4046BDE8F08770B504460569C06A8F
:100AF0006168884200D80846E16821F42011E1606D
:100B0000C90312D5A84208D02246411B2846FFF748
:100B1000C1FF10B14FF0FF3070BD0020E562C4E9A5
:100B20000150E06820F48030E060002070BD10B516
:100B30000446C06820F02000E060A16AA0698842F5
:100B40000DD02046FFF7D0FFE06820F4405040F081
:100B50001000E060A06AA0612069E062606044F279
:100B60004001E0688843E06010BD00001000020012
:100B7000002801D000F01CB87047000010B50146F5
:100B800002A000F05DF8012010BD0000534947525B
:100B9000545245443A2052656469726563743A2040
:100BA00063616E2774206F70656E3A20000000004C
:100BB00001491820ABBEFEE72600020000210160BB
:100BC000C0E90110704710207047034640688C460A
:100BD000002818BF88423CBF03464068F8D3186815
:100BE0001844884207D00CF1030020F00700001DD4
:100BF000411A521A0146081D0A60FFF75BBD10B585
:100C00000146C268900703D0900607D5886A0AE0BB
:100C100000F03EF801210160881E10BD8B69486814
:100C200018440B69C01A91F848301BB191F849106B
:100C3000401A10BD1103FCD50028FADD401E10BD7E
:100C400070B505460C460A2000E06D1C00F018F84F
:100C500035B128780028F8D102E0641C00F010F8C3
:100C600014B120780028F8D1BDE870400A2000F0C7
:100C700007B810B500F010F8BDE81040FFF778BFD6
:100C800008B569468DF800000320ABBE08BD000022
:100C9000004870472014001010B5012805D000212D
:100CA00003A0FFF7CDFF012010BD09A1F8E7000068
:100CB00053494752544D454D3A204F7574206F6645
:100CC0002068656170206D656D6F727900000000AD
:100CD0003A2048656170206D656D6F727920636F91
:100CE000727275707465640038B5684601F048FB2F
:100CF0006946084801F036FC0446002C05DD224612
:100D00000449822001F078FA02E0012002490880BB
:100D100038BD0000401100100E00001008B5054954
:100D2000022000F0D3FE00906946024800F0E0F88F
:100D300008BD0000801100100146012070470146E7
:100D400001207047012070470D4800780D49087058
:100D50000B480088000A487009480068000C887039
:100D600007480068000EC8700548007908710448FB
:100D700040794871024880798871012070470000ED
:100D8000040000102D00001008B500202A4908803A
:100D9000684601F0B9FBBDF8000000F4004028B13E
:100DA0002548008840F0010023490880BDF8000074
:100DB00000F4005028B12048008840F002001E498D
:100DC0000880BDF8000000F0100028B11A48008823
:100DD00040F0040018490880BDF8000000F480408D
:100DE00028B11548008840F0080013490880BDF874
:100DF000000000F0080028B10F48008840F0100003
:100E00000D490880BDF8000000F0040028B10A4830
:100E1000008840F0200008490880BDF8000000F07C
:100E2000020028B10448008840F0400002490880D0
:100E30000148008808BD00000C00001010B5A1207A
:100E40000C4908702020487000208870C870087114
:100E50004871022088710020C87107480078087224
:100E600005480088000A48720A22812001F0C4F96E
:100E700010BD0000C01100100C0000100146012040
:100E8000704701207047014601207047014601204C
:100E90007047000010B5144800781349497840EABB
:100EA00001201149897840EA01400F49C97840EA98
:100EB00001600E4908600C48007908710A484079C1
:100EC0004871094880798871012001F067FA012092
:100ED00001F024FB054C23796279A179206801F0A7
:100EE00081FA012010BD00002D0000100400001048
:100EF000F0B502460B4619680C460AE012F8016B81
:100F0000064D286C451C054F3D6400F03F057E559D
:100F1000491E0029F2D12046F0BD0000CC1100107E
:100F200010B50648006800200449C439C1F8C4005F
:100F3000012148F20A0000F003F810BDC4C00F40C0
:100F4000012909D10A4A12680A4B03401A43084B87
:100F5000C43BC3F8C42009E041B9054A1268054BF7
:100F600083431A40024BC43BC3F8C42070470000BF
:100F7000C4C00F40DEF7EFEF01460A07D00E01F0C4
:100F8000800202B1401C70471CB500208DF805009E
:100F900001208DF804000320009002208DF8070046
:100FA00000208DF806000849684600F00FF8002080
:100FB0008DF8040001208DF8060080200090024981
:100FC000684600F003F81CBD00C009200279012A20
:100FD00010D10A6803681A430A60C279022A04D150
:100FE0008A6903681A438A619AE0CA6903681A43E6
:100FF000CA6195E00279002AF6D10A6803689A432B
:101000000A604E4A914243D18279012A08D14C4A62
:10101000D2F8902003681A43494BC3F890202FE080
:101020008279022A08D1464AD2F8942003681A43EA
:10103000434BC3F8942023E08279032A0FD1404A1E
:10104000D2F8902003681A433D4B90331A603C4B12
:10105000D3F894301A433A4BC3F8942010E08279C5
:1010600072B9374AD2F8942003689A43344B9433C8
:101070001A60334BD3F890301A40314BC3F89020AC
:101080002F4AD2F88C2003681A432D4BC3F88C20CA
:101090002A4A4032914243D18279012A08D1284A12
:1010A000D2F8B02003681A43254BC3F8B0202FE0D4
:1010B0008279022A08D1224AD2F8B42003681A435E
:1010C0001F4BC3F8B42023E08279032A0FD11C4AB6
:1010D000D2F8B02003681A43194BB0331A60184B8A
:1010E000D3F8B4301A43164BC3F8B42010E0827919
:1010F00072B9134AD2F8B42003689A43104BB43340
:101100001A600F4BD3F8B0301A400D4BC3F8B02023
:101110000B4AD2F8AC2003681A43094BC3F8AC2041
:101120004279012A04D10A6903681A430A6103E07B
:101130000A6903689A430A617047000000C00920E9
:101140000080024010B5FF2240F649010448FFF735
:1011500068F804A0FFF73AF80A20FFF70FF810BD6F
:10116000A108001054657374696E670D0A000000D1
:1011700000F01F0201219140024A430942F8231066
:101180007047000080E100E000F01F020121914063
:101190004209920002F1E022C2F80011704710B536
:1011A000FFF7BEFEFFF7F0FE10BD00000146302045
:1011B000084A10600848C0F8101200BF05480838F7
:1011C000006800F020000028F8D002480C300068C9
:1011D0007047000008C2005000C000504FF0E020EF
:1011E000006920F480304FF0E02108617047000072
:1011F00010B5FFF7F3FF0348406980F00100014993
:10120000486110BD00C0092020204C4908604C48AE
:10121000D0F8A00100F0200030B100BF47480068BE
:1012200000F040000028F9D0032044499C390860B0
:1012300000204349C1F8A80140490C310860012051
:101240003E49943908603F483D4984310860AA20EE
:101250003B498C31086055200860012038498031B5
:101260000860AA2036498C31086055203449C1F8FD
:101270008C0000BF32488830006800F08060002891
:10128000F8D003202E4980310860AA202C49C1F8EB
:101290008C0055202A498C31086000BF28488830CE
:1012A000006800F04070B0F1407FF7D1232024495E
:1012B000A4310860AA202249C1F8AC005520204979
:1012C000AC31086001201E49A0310860AA201C49E9
:1012D000AC31086055201A49C1F8AC0000BF18486D
:1012E000A830006800F480600028F8D0032014497A
:1012F000A0310860AA201249C1F8AC00552010495D
:10130000AC31086000BF0E48A830006800F440709F
:10131000B0F5407FF7D10C480949C431086000207E
:101320000749C1F8C8010846006820F4704040F43D
:10133000804008600020054908607047A0C10F4048
:1013400000C00F4063000500DE97280408ED00E0B0
:1013500008B5264880680090009800F0040018B98D
:10136000009800F00C00A8B10EE020480178204859
:1013700090F88020D0F88000401C1D4BC3F88000FE
:1013800002F07F001A4611541848007D00F0010059
:101390000028EAD1009800F00200F8B1154890F852
:1013A0008000144991F88410401A00F07F0090B139
:1013B000104890F88410D0F88400401C0D4AC2F800
:1013C000840001F07F001146085C08490870002085
:1013D0000949086002E00120074908600348007DD0
:1013E00000F01E000549088008BD000000C0004054
:1013F0009C120010141200101000001014000010B5
:1014000008B5284880680090009800F0040018B9DA
:10141000009800F00C00A8B10EE0224801782248A4
:1014200090F88020D0F88000401C1F4BC3F880004B
:1014300002F07F001A4611541A48007D00F00100A6
:101440000028EAD1009800F00200F8B1174890F89F
:101450008000164991F88410401A00F07F0090B186
:10146000124890F88410D0F88400401C0F4AC2F84B
:10147000840001F07F001146085C0A4908700020D2
:101480000B49086002E00120094908600548007D19
:101490000449097E40EA01204EF21E010840054938
:1014A000088008BD000001409C12001014120010BA
:1014B000100000101400001030B504462046FFF75D
:1014C0005BFD044941EA00458913284600F0DCFE33
:1014D00030BD00000005400010B503469878FFF7C6
:1014E0004BFD04460D4800680121A14008430C490A
:1014F000C1F844020948001D04609888C1F84C02F4
:1015000000BF06484438006800F480700028F8D016
:101510004FF4807001493C39086010BD44C200504E
:1015200000C0005010B504460CB1012000E00020BE
:101530004FF4807242EA0041094800F0A5FE032002
:101540000849086000BF07484438006800F480700C
:101550000028F8D04FF4807002493C39086010BD73
:101560000005D80044C200507047000010B50C4878
:101570008088082801DD082401E00948848808489B
:1015800022460168802000F037FE044604480068C7
:1015900020440349086008468088001B888010BDED
:1015A0003800001010B508480168002000F08EFADD
:1015B00004460548006820440349086008468088BE
:1015C000001B888010BD000038000010704700002C
:1015D00030B504462046FFF7CFFC044941EA0045F8
:1015E0000349284600F050FE30BD000000054000D1
:1015F0000001200030B504462046FFF7BDFC044939
:1016000041EA00458913284600F03EFE30BD000047
:101610000005400010B50446082C6FD2DFE804F046
:101620006E04F2F16E6EF0EF00F0CCFDCD4909785A
:10163000C809FFF7CBFFCB48C088CB498880C94891
:101640000078C0F3411010B101287BD192E0C54869
:1016500040780C2877D2DFE800F0060D8A158A1D45
:10166000333A41555E8300F0C3FA00B9FBE0FFF75F
:101670007DFF7DE0002000F025FB00B9F3E000F0E5
:10168000A9FD75E0012000F01DFB00B9EBE000F0C2
:10169000A1FD6DE000BFB348007800F01F0030B935
:1016A000B048807840F08000B049087001E0002028
:1016B00001E000BF012000B9D5E000F08BFD57E04C
:1016C00000F03AFA00B9CEE0FFF750FF50E00020FA
:1016D00000F066FD0020A449888049E000BFA148D1
:1016E000007800F01F0018B9A1489F49086001E088
:1016F000002001E000BF012008B9B4E02FE1FFF7AE
:1017000035FF35E000F054FB00B9ACE000F062FDBD
:10171000FFF72AFF2CE000BF9248007800F01F007E
:10172000012814D19248007870B18E48007991490F
:101730000978884208DA8B4800798F4908448A4939
:10174000086003E08EE012E0002004E001E00020E9
:1017500001E000BF012000B985E0FFF707FF07E0C7
:1017600000F006FC00B97EE000F034FD00E07AE015
:1017700000BF7FE07B48007800F01F0020B1012807
:1017800003D002286CD16AE06DE07648007918B188
:1017900074480079012861D172484078042833D018
:1017A00007DC78B1012811D0022819D0032854D1C0
:1017B0001AE0202831D0212833D022283BD02328FA
:1017C0004BD141E06D48684908604AE0FFF7BAFA3A
:1017D00028B16A4864490860FFF7C8FE41E03CE070
:1017E0006648614908603CE05E494888FFF7A7FA0F
:1017F00048B162485C490860FFF7B8FE31E0AAE0F2
:10180000A5E08BE038E028E056494888FFF794FAD5
:1018100010B100F0DFFC24E01FE058485249086096
:101820001FE0FFF791FA28B154484F490860FFF7CD
:101830009DFE16E011E04B494888FFF727FB10B1E9
:1018400000F0C8FC0DE008E046494888FFF716FBA9
:1018500010B100F0BFFC04E000BF00BF03E002E0F5
:1018600001E007E000BF802000F09AFC00203E4924
:10187000888000BF00BF72E03A480078C00980BB92
:101880003948808870B3FFF78DFE3748808848BBA1
:1018900034480078C0F3411010B1012839D100E07C
:1018A000E1E73048007800F01F0020B1012803D0A4
:1018B00002282CD12AE0D6E72A48007918B1294815
:1018C0000079012821D12748407820B102280BD087
:1018D000202819D111E0FFF7D4FA20B100F07AFCEA
:1018E00016E018E019E00FE01E494888FFF7CBFA30
:1018F00010B100F06FFC0BE006E0FFF7CBFA10B17F
:1019000000F068FC04E000BF00BFACE7ABE7AAE76B
:1019100000E0A8E701E000F065FC20E01148007855
:101920000121B1EBD01F02D1FFF720FE0EE00F48DE
:10193000007800F0800048B10C48007800F07F008B
:101940000A4908700846007800F012FC07E0002001
:10195000FFF7B2FD03E08020FFF7AEFD00BF00BF40
:1019600010BD000040000010380000101A000010E8
:101970001B00001028000010290000102D0000108E
:1019800070B50546032D0BD1FFF7FEF90446054857
:101990000088A04203D003480480FFF74FFA00BF3D
:1019A00000BF70BD4800001010B50446022C02D0E4
:1019B000032C06D102E0FFF7B1F902E0FFF794F93A
:1019C00000BF00BF10BD00002DE9F0473B48D0F834
:1019D000009009F00800E8B1082038490831086093
:1019E000374800F03DFC3748FFF7E0FB054605F0BF
:1019F000100018B100F05EFB00F0B4FB05F0080029
:101A000038B105F0040010B100F0F4FB01E000F083
:101A1000ADFB51E009F0040000284CD04FF0000865
:101A200026483030076800243EE0474500D13DE0BD
:101A30000120A040384058B30120A04040EA0808E7
:101A400066080120A0401D493831086000BF1B48CE
:101A5000006800F020000028F9D01848143005680C
:101A600004F00100A8B954B905F0040038B11648D3
:101A7000006820B1144801680120884713E012482B
:101A800050F8260020B1104850F826100220884750
:101A900008E00D4850F8260020B10B4850F82610F9
:101AA0000320884700BF641C202CBED300BF042045
:101AB00002490831086000BFBDE8F08700C200504D
:101AC0000005FE000002FE007C260000F0B5054681
:101AD0000F4605F00F00012101EB8000134908605B
:101AE00000BF12480838046804F400600028F8D0E9
:101AF000C4F30904002605E00D48D0F81802386048
:101B00003F1D761CE01CB6EB900FF5D30020074973
:101B1000086041F24820284100F0010018B9054949
:101B2000284600F0D3FB2046F0BD000028C200503C
:101B300000C000500005F20010B52848007800F001
:101B40001F0010B101283ED13AE02448C078012896
:101B500004D0022807D003282ED118E02048214CB9
:101B6000206012232AE02049002204E0087808B10E
:101B700048880144521C194880789042F6D1087870
:101B800008B9002010BD174801604B8816E01749BE
:101B9000002204E0087808B108780144521C0F487C
:101BA00080789042F6D1087808B90020EAE70D481D
:101BB00001600068037801E00020E3E700BF04E073
:101BC00000BF0020DEE70020DCE700BF054880887A
:101BD000984201D9034CA3800120D3E740000010B4
:101BE000BC25000038000010CE25000012260000A1
:101BF0002C48007800F01F0020B1012806D00228F0
:101C00004BD117E02848294B186048E02848007855
:101C100068B124480079274B1B78984207DA0020E6
:101C2000254B188018801846204B186001E00020D2
:101C3000704734E01B48007900F08F0101F080000C
:101C400028B101F00F034FF48030984001E00120EB
:101C5000884002461648007810B901F00F00C8B954
:101C6000164800681040A8B115480068104008B137
:101C7000012000E00020104B18801148006810403F
:101C800008B1012000E000200B4B18801846074BDC
:101C9000186001E00020CBE701E00020C8E700BFAA
:101CA0000120C5E7400000101800001038000010A7
:101CB0001B000010280000102D0000101C00001058
:101CC0002000001070B506463348007800F01F0071
:101CD00020B101281DD0022858D11CE02E48408890
:101CE000012813D146B100F086FA2C48008840F054
:101CF00002002A4908800BE0002000F07CFA274807
:101D0000008820F002002549088001E0002070BD15
:101D10003EE00020FBE72048007900F08F0404F04B
:101D2000800028B104F00F014FF48030884001E0BA
:101D30000120A04005461A48007820B304F00F00A7
:101D400008B3184800682840E8B113484088C0B973
:101D500046B1204600F024FA13480068284312498F
:101D6000086012E011480068284008B10120CEE761
:101D70002046FFF7A1FB0C480068A8430A49086009
:101D800003E00020C3E70020C1E701E00020BEE738
:101D900000BF0120BBE70000400000101800001049
:101DA0001B0000101C000010200000102400001078
:101DB0002DE9F04100276548007800F01F00002859
:101DC0007ED16248807800287BD0614D83E06878BE
:101DD000022804D0042853D0052876D152E068792F
:101DE0005A498978884245D15848807859490870BD
:101DF000287959490870002403E000205749085504
:101E0000641C042CF9D3012414E00120A04054499F
:101E10000968084010B12046FFF7DAFB4FF4803024
:101E2000A0404F490968084018B144F08000FFF70E
:101E3000CFFB641C102CE8D34FF001104849086018
:101E4000002048490860484908600120FFF76AFB04
:101E5000E87900F0400030B14448008840F00100CB
:101E6000424908800BE04148008820F001003F49CA
:101E7000088004E02E466888064435462BE024E0BE
:101E8000EF7822E007BBA87800F08F0404F0800010
:101E900028B104F00F014FF48030884001E00120A8
:101EA000A04080462E48006840EA08002C4908609F
:101EB0002846FFF711FB2046FFF79CFB204601E078
:101EC0003FE00DE000F03EF900BF00BF2E4628784D
:101ED0000644354600BF287800287FF478AF26E016
:101EE00000201C490870012414E00120A0401C4976
:101EF0000968084010B12046FFF76AFB4FF48030B4
:101F0000A04017490968084018B144F08000FFF765
:101F10005FFB641C102CE8D34FF0011010490860DF
:101F200000201049086010490860FFF7FBFA0748D5
:101F3000807808490978884202D00020BDE8F08105
:101F400001E00020FAE700BF0120F7E740000010A1
:101F5000CE2500001B0000102800001029000010F2
:101F60001C000010200000102400001018000010B9
:101F70002DE9F84F4FF00008C1460020009082463E
:101F80004648007800F01F0001287DD144480078C1
:101F900010B90020BDE8F88F4FF0000B414C71E004
:101FA0006078022804D004280DD0052864D122E0EE
:101FB00060793B490978884204D026466088064407
:101FC00034465FE058E094F8028094F803904FF0B4
:101FD000000A3248007940450CD1304880784845A5
:101FE00008D14FF0010B304810F8080000902E493E
:101FF00001F8089040E02948007940453BD1A0789D
:1020000000F08F0707F0800028B107F00F014FF4B0
:102010008030884001E00120B84005461F488078A4
:10202000484515D1214800682843204908602048C8
:102030000068A8431E4908602046FFF74DFA38465D
:10204000FFF7D8FA384600F07DF84AEA050A12E0B0
:10205000009881450FD10AEA050060B9134800686D
:10206000A8431249086012480068A8431049086054
:102070003846FFF7ADFA00BF00BF26462078064479
:10208000344600BF207800E002E0002888D101E05B
:1020900000207FE700BF58467CE7000040000010AA
:1020A0001B000010CE250000290000101C000010AD
:1020B0002000001000201249086008201149C1F8D2
:1020C0004C0201200E49086008200E49C1F84C025C
:1020D00000BF0B484838006800F480700028F8D032
:1020E0004FF0FF300649103908600649C1F8340244
:1020F0000349403908600C200249C1F804027047C6
:1021000048C2005000C0005000200849088008491B
:102110000870084908704FF0011007490860002056
:102120000649086006490860704700001800001062
:102130001A0000101B0000101C00001020000010EE
:102140002400001030B504462046FEF715FF044970
:1021500041EA00458913284600F096F830BD00009A
:102160000005400010B5FFF7CFFF10BD704700001D
:1021700010B5044644F080004FF4807242EA0041FA
:10218000064800F081F844F080004FF4807242EA83
:102190000041024800F078F810BD00000005D000B2
:1021A00030B504462046FEF7E7FE044941EA004503
:1021B0000349284600F068F830BD000000054000E3
:1021C0000001010010B502490020FFF77FFC10BD9F
:1021D0004000001010B500221146802000F00CF8DD
:1021E00010BD000010B502490020FFF76FFC10BDC4
:1021F0002D00001070477047F0B506460D46144696
:1022000006F00F00022101EB80000D4908600D4827
:10221000C0F82442002705E0286809490C39086005
:102220002D1D7F1CE01CB7EB900FF5D30020044957
:1022300008600549304600F049F82046F0BD00002E
:1022400028C2005000C000500005FA00704772B666
:10225000AA20410708725520087262B67047000034
:102260001021074A11600749C1F8100200BF044954
:102270000839096801F010010029F8D07047000002
:1022800008C2005000C0005010220E4B1A600E4AC7
:10229000C2F8100200BF0B4A083A126802F010029E
:1022A000002AF8D01022074B1A60074AC2F8101211
:1022B00000BF044A083A126802F01002002AF8D05F
:1022C0007047000008C2005000C0005010B504461E
:1022D0000B461020114908602046FEF74DFE4FF4D2
:1022E000A06141EA00400E49C1F8100200BF0B484E
:1022F0000838006800F010000028F8D010200749C6
:1023000008600748C0F8103200BF04480838006869
:1023100000F010000028F8D010BD000008C20050E6
:1023200000C0005030380A2801D201207047002038
:102330007047000010B5024610460B4B1B6803F0B7
:10234000010373B1084B803B1B6803F0010343B1E9
:1023500000BF4FF060431B68002BFAD04FF0604481
:10236000207000BF10BD0000800E00E0FEF717FFD8
:10237000FFF76CFF03E0FEF7E5FEFFF768FFFAE703
:10238000054991F88010044A92F88420891A01F0D6
:102390007F010160704700009C12001010B50446D8
:1023A00064B90D48006820F0F0000B490860002077
:1023B0000A4948600520FEF7DBFE0BE0064800698D
:1023C00020F00F00044908610020054948600620FC
:1023D000FEF7CEFE10BD000000C0024000C000406D
:1023E000000001402DE9FF5F8246904601980528D4
:1023F00006D0062806D0072806D0082806D106E011
:10240000002506E0012504E0022502E000BF0325C7
:1024100000BF00BF039840B1012802D0022803D1B9
:1024200000E000BF042702E000BF002700BF00BF9C
:10243000B8F1050F0CD2DFE808F00C03050709001E
:10244000082408E0182406E0282404E0382402E0E8
:1024500000BF002400BF00BF00202549C1F8800054
:10246000C1F884002349C1F88000C1F884002248E3
:102470000068C0F3012BBBF1000F09D0BBF1010FC5
:102480000AD0BBF1020F0AD0BBF1030F0BD000BF83
:102490001A48006886080AE01848066807E01748E6
:1024A0000068460803E015480068C60800BF00BF82
:1024B0003009B0FBFAF900201149886245F080002C
:1024C00020433843087381F800904FEA19200871BF
:1024D00045EA040038430873032048600720087267
:1024E0000120084908600620FEF74EFEBDE8FF9F68
:1024F000141200109C120010A8C10F400000001020
:1025000000000140100000100349098801800021EB
:10251000014A1180704700001400001010B50446F5
:1025200074B90520FEF724FE0D48006820F0F00085
:102530000B4908600846006840F0500008600DE054
:102540000620FEF715FE0648006920F00F0004493A
:1025500008610846006940F00A00086110BD0000EB
:1025600000C0024070B502460B680C689C4201DD59
:102570001C4600E00C682346184617E000BF0E4CCE
:10258000D4F884400C4DD5F88050AC42F7D00A4CBA
:1025900094F88450D4F88440641C074EC6F88440F4
:1025A00005F07F0435462C5D02F8014B1C1EA3F19B
:1025B0000103E3D170BD00009C1200101201000263
:1025C00002000008C91F02200001010203010902E4
:1025D0004300020100803209040000010202005E93
:1025E0000524001001052401010104240202052430
:1025F0000600010705810310000209040100020A18
:1026000000005E070502024000000705820240004C
:102610000000040309041C034E0058005000200071
:10262000530045004D00490043004F004E00440058
:10263000200024034E005800500020004C005000A1
:102640004300310037007800780020005600430036
:102650004F004D0020001A03440045004D004F007C
:1026600030003000300030003000300030003000EA
:102670000A03560043004F004D00000015160000ED
:1026800081190000A91900000000000000000000EE
:10269000000000000000000000000000000000003A
:1026A000000000000000000000000000000000002A
:1026B000000000000000000000000000040000080E
:1026C000000000000000000200010000103A7474D5
:1026D000003A7474003A747400000000FC26000094
:1026E00000000010580000000801000054270000FE
:1026F00058000010281A00002401000000E1F50530
:10270000802500000000080000000100000000001B
:1027100000000000000000000000000000000000B9
:1027200000000000000000000000000000000000A9
:102730000000000000000000000000000000000099
:102740000000000000000000000000000000000089
:042750000000000085
:04000005000000CD2A
:00000001FF
