:020000040000FA
:1020000040150010252200002D2200002F22000084
:1020100031220000332200003522000000000000C1
:102020000000000000000000000000003722000057
:1020300039220000000000003B220000CD4E0000CD
:102040003F2200009D5000003F2200003F22000080
:102050003F2200003F2200001D5300003F220000ED
:102060003F2200003F2200003F2200003F220000EC
:102070003F2200003F2200003F2200003F220000DC
:102080003F2200003F2200003F2200003F220000CC
:102090003F220000C14100003F2200003F2200001B
:1020A000116000003F2200003F2200003F2200009C
:1020B0003F2200003F2200003F220000D94C0000D8
:1020C0003F2200003F2200003F22000000F002F803
:1020D00000F090F80AA090E8000C82448344AAF132
:1020E0000107DA4501D100F085F8AFF2090EBAE830
:1020F0000F0013F0010F18BFFB1A43F0010318473C
:10210000FC5000001C510000103A24BF78C878C170
:10211000FAD8520724BF30C830C144BF04680C60ED
:10212000704700000023002400250026103A28BF35
:1021300078C1FBD8520728BF30C148BF0B60704739
:102140006E2900F00384702900F0C181662904F033
:102150005187652904F04E87672904F04B87612970
:1021600004F04A8703681B0A28BF41F080016929EF
:1021700000F03281642900F02F81752900F02C8154
:102180006F2900F0EA86782900F08D81E92900F0B6
:102190008586E42900F08286F52900F07F86EF2904
:1021A00000F0E786F82900F08C810368DB0928BF7E
:1021B00041F08001632901F03D81732901F04281E2
:1021C000E32901F04D81F32901F05281002070478D
:1021D0001FB500F01DFF04000020002104F0F4FEF4
:1021E000401C60600020002104F0D8FEE0601FBDAC
:1021F00010B510BD01F022FA1146FFF7E9FF04F017
:10220000BDFC01F04EFA03B4FFF7F2FF03BC01F08E
:1022100051FA000044F21A1100FB01F00138FDD11F
:10222000704700000948804709480047FEE7FEE77D
:10223000FEE7FEE7FEE7FEE7FEE7FEE7FEE7FEE776
:1022400004480549054A064B70470000E94E000066
:10225000CD200000400F001040150010401100106C
:102260004011001053EA020C00F069802DE9F04B98
:102270004FF00006002B1FBFB3FA83F503FA05F4F5
:1022800024FA05F65E4012BF1643B2FA82F502FA4E
:1022900005F4C5F120051EBF22FA05FC44EA0C0432
:1022A000203556EA044C4FEA144418BF641C4FF022
:1022B00000084FF00009904271EB030C39D300295C
:1022C00019BFB1FA81F701FA07F6B0FA80F700FA00
:1022D00007F6C7F120071EBF20FA07FC46EA0C06E6
:1022E0002037B6FBF4FCA7EB0507103F07F01F0BE8
:1022F000CBF120060CFA0BFB2CFA06F644BFB346D2
:102300000026202FA4BF5E464FF0000B5BEA060CB0
:1023100008BF4FF0010B19EB0B09ABFB027C48EB3C
:102320000608C01B06FB02CC0BFB03CC71EB0C01B7
:10233000C1E70B46024641464846BDE8F08B13B55F
:102340004FF000004FF00001AFF30080BDE81C40EB
:10235000704700007CB51D4616460C00009001D069
:102360002044401E074B7B442A4669460190304674
:1023700000F015FD05461CB10020694600F022FD65
:1023800028467CBD650A000070B504468569006872
:10239000C10601D5302600E02026C00707D070BD59
:1023A000D4E9012130469047206A401C20626D1E0E
:1023B000F6D570BD70B5044685690078C00707D1B1
:1023C00070BDD4E9012120209047206A401C206282
:1023D0006D1EF6D570BD00002DE9F04106460024C3
:1023E00010687529314616A510D000F01BFA002898
:1023F00002DA404213A507E031688A0701D512A529
:1024000002E0490704D511A5012401E000F013FA08
:1024100000210A2206F1240709E0B0FBF2FCB0FB20
:10242000F2F302FB1C00303078541846491C002897
:10243000F3D123462A463046BDE8F04100F02DBADC
:10244000000000002D0000002B0000002000000014
:10245000F0B40D460188090502D5214C7C4402E008
:102460001F4C7C440E34002100F1240608E002F0E9
:102470000F071209E75D42EA03721B097754491CF2
:1024800052EA0307F3D102780023120704D5702D16
:1024900006D009B1022311342246F0BC00F0FDB988
:1024A00001231034F8E770B504460D462146106844
:1024B00000F0C1F9024629462046BDE870400023DD
:1024C000C6E7D21D22F00703D3E90023C0E7036863
:1024D000126843F0200303600823C3610023B7E7B9
:1024E0009C4C00002DE9F05F894604464FF0000A3D
:1024F000DFF874B1FB44C0F820A02046E1688847AB
:10250000002874D0252806D0D4E901219047206AFC
:10251000401C2062F1E700265F462046E1688847BC
:102520002028054607DB312D05D2781910F8200C3C
:1025300008B10643F1E7B00701D526F00406C4F858
:102540001CA00027C4F818A02A2D09D0284604F0A2
:1025500001FB38B304EB8708303DC8F8185019E088
:1025600059F8041B204604EB87029161E168884713
:10257000012F054618D1E069002820DA26F0200650
:102580001DE0D8F8180000EB800005EB4000303863
:10259000C8F818002046E1688847054604F0DAFAD2
:1025A0000028EED1012F0AD02E2D08D12046E16857
:1025B00088477F1C0546022F46F02006C4DBA06931
:1025C000002803DA404246F00106A061F00701D07E
:1025D00026F010066C2D0BD0682D09D04C2D39D06B
:1025E0006A2D35D0742D35D07A2D33D016E038E0F1
:1025F000E1682F4620468847B842054609D16C2F2E
:1026000026D04FF48060E16806432046884705469F
:1026100004E06C2F1AD04FF4807006430DB3A5F17F
:102620004100192802D8203546F400664A4629465A
:10263000204626604E46FFF783FD80B101280BD06F
:10264000F61D26F0070000F1080956E74020E4E7F0
:102650008020D8E70020D6E706F104094DE7284698
:1026600052E7206ABDE8F09F2C4C000070B506468A
:1026700000F0D4F80468054630460A22002100F034
:1026800083FC2C6070BD30B505460B462A4613F816
:10269000014B12F8010B08B1A042F8D01CB1002880
:1026A00002D06D1CF1E7284630BD10B5431C02E096
:1026B00010F8011B71B18107FAD14FF0013202C845
:1026C0008C1A8C4314EAC211F9D0C01A0A0603D03E
:1026D000C01E10BDC01A10BD0A0401D0801E10BD5E
:1026E0000902FCD0401E10BD421E12F8013F002B13
:1026F000FBD111F8013B002B02F8013BF9D17047E7
:102700004FF000020429C0F0128010F0030C00F01A
:102710001B80CCF1040CBCF1020F18BF00F8012B98
:10272000A8BF20F8022BA1EB0C0100F00DB85FEA66
:10273000C17C24BF00F8012B00F8012B48BF00F832
:10274000012B70474FF0000200B5134694469646A1
:10275000203922BFA0E80C50A0E80C50B1F12001B4
:10276000BFF4F7AF090728BFA0E80C5048BF0CC062
:102770005DF804EB890028BF40F8042B08BF7047C0
:1027800048BF20F8022B11F0804F18BF00F8012B32
:10279000704700004FF0013C50F8042B51F8043B07
:1027A0009A4221D1A2EB0C03934313EACC1317D125
:1027B00050F8042B51F8043B9A4215D1A2EB0C03BC
:1027C000934313EACC130BD150F8042B51F8043B7C
:1027D0009A4209D1A2EB0C03934313EACC13DBD04A
:1027E0004FF00000704700BFD01A01BAB1FA81F172
:1027F00001F0180122FA01F0CB40C1F12001DBB257
:10280000C0B2C01A2CFA01F3D11A914311EAC311D4
:10281000E6D1704770477047704700000048704726
:10282000E00E001009684A0501D540B27047C9059D
:10283000FCD500B2704709684A0501D5C0B270479F
:10284000C905FCD580B2704770B50C460546012A13
:1028500005D02878800600D5EA69002302E001232C
:1028600005E05B1C934202D2E05C0028F9D1A86924
:10287000E618C01AA861286A184428622846FFF79B
:1028800083FD04E0D5E9012114F8010B9047B4421F
:10289000F8D32846FFF78EFD70BD2DE9F0470D46B1
:1028A00099469246044600F124080168880604D53A
:1028B000E06921F01001216000E00120A84201DD63
:1028C000471B00E00027A1697A1902EB0900081AEA
:1028D000A0612078C00602D42046FFF755FD0026EF
:1028E00008E0D4E901211AF806009047206A401C4C
:1028F000761C20624E45F4DB2078C0060AD52046BF
:10290000FFF742FD06E0D4E9012130209047206A1C
:10291000401C2062381EA7F10107F4DC07E0D4E96F
:10292000012118F805009047206A401C2062281EEB
:10293000A5F10105F3DC2046FFF73CFD20780006F9
:1029400002D50220BDE8F0870120FBE7116802688C
:10295000006A530501D508700AE0D30501D5088047
:1029600006E0130603D5C217C1E9000200E00860C3
:102970000120704770472DE9FF4F0C461E464FF06F
:10298000FF378BB0D2E90001DDF860800A908A46FB
:10299000C1F30A5505B93D46002108464FF0000035
:1029A000BAF1000F00F4400005DA00EB80004FF4AC
:1029B000400101EA50004FEA9059B9F1010F00DDE2
:1029C000B9460A9850EA4A000ED044F61050A5F2D3
:1029D000FF3545432F14B8F1000F1ED07542291E54
:1029E0001EDDC9F100021CE0B8F1010F4FF000003C
:1029F00001D0302103E0F24305E02154401CB042F5
:102A0000FBDB30460022002121540B99C1F80880DD
:102A1000C1E900200FB0BDE8F08FBD1B6D1CDEE7E3
:102A20004A4600DA694206A800F076FD06AB93E854
:102A3000070003AB83E8070050460A9900F041FE07
:102A40008DE80700A0F500501F3800900398002D76
:102A50000ADD42F21F014A460844002303A90390FD
:102A6000684601F0AAF809E0A0F500504A461F3870
:102A7000002303A90390684601F0B4F88DE807002D
:102A80000004000C03D04FF0FF30410800E0104676
:102A9000B8F1000F03D00022009215461EE0751E0B
:102AA00005D400F0B9FA303262556D1EF9D5B3463F
:102AB0000122084302D000227F1C04E02078302845
:102AC00001D100227F1E002A099784D01DE0112D1C
:102AD00007DA00F0A1FA303262556D1C50EA0102AB
:102AE000F5D1084302D00098C8B10EE00021681E5D
:102AF00005E0235C625C63542254401E491C814201
:102B0000F7DBAB46A81B401E0990002004F80B0021
:102B10000B98099AC0F80880C0E9002B7AE71126C3
:102B20004FF0000857E72DE9F04F88460446D21DC4
:102B300022F0070191B0D1E90001CDE90A0103F0CB
:102B4000F5FF02460B98C00F01D02D2007E020684A
:102B5000810701D52B2002E0202101EAC000032AD1
:102B6000099001D0072A05DB03464146204600F0C4
:102B700017FC0BE12078800601D5E06900E0062013
:102B8000B8F1650F814606D0B8F1660F18D0B8F1DC
:102B9000670F70D131E00020B9F1110F009001DB17
:102BA000112301E009F101030AAA01A90CA8FFF70A
:102BB000E2FEDDE90C70002609F10105834647E0DD
:102BC00001204B4600904FF000470AAA01A90CA82B
:102BD000FFF7D1FEDDE90DB00C995D46002610B976
:102BE00009F101000D18B9EB050003D4C0F1FF365F
:102BF00009F10105A5EB09002BE0B9F1010F01DA9C
:102C00004FF001090020B9F1110F0090484601DD95
:102C1000112300E003460AAA01A90CA8FFF7ABFEA6
:102C2000DDE90C704D4600268346207800070AD463
:102C3000AB4500DA5D4601A8012D04DD411911F80C
:102C4000011C302907D04F4502DA17F1040F04DACE
:102C5000012082460FE06D1EEEE7002F02DCED1B27
:102C60003E4403E0781CA84200DD7D1CB81B00F147
:102C7000010A4FF000472078000703D4AA4501DB82
:102C80004FF0FF3A0021B7F1004F0DF143088DF8E6
:102C9000431024D002202B23002F01DA7F422D2362
:102CA0000A21021EA0F1010000DC5FB197FBF1FCDC
:102CB00097FBF1F201FB1C7C17460CF1300C08F875
:102CC00001CDEEE7A8F1010003702188090501D5C7
:102CD000452100E06521A0F1010800F8011C0998D8
:102CE0000FA9A1EB0807FF1D00B10120411901EB5D
:102CF000EA70A1693844081A401EA0612078C00615
:102D000002D42046FFF740FB099828B1D4E90121FD
:102D10009047206A401C20622078C00622D52046B9
:102D2000FFF732FB1EE0002E04DBB34502DD01A8F5
:102D3000805D00E03020D4E901219047206A401CEA
:102D40002062761CAAF101005FEA000A0AD100F0B5
:102D50005FF9C0680168405CD4E901219047206AAE
:102D6000401C2062281EA5F10105DCDC07E0D4E947
:102D7000012118F8010B9047206A401C2062381E80
:102D8000A7F10107F3DC2046FFF714FB032011B085
:102D900041E6000001694A1C02610878704700B5ED
:102DA0008FB0CDE901310021059105497944CDE984
:102DB000031011466846FFF795FB0FB000BD0000F9
:102DC000E5FFFFFF0A6802F8010B0A607047D1E9CE
:102DD00000239A4202D2531C0B601070704700000F
:102DE0002DE9FF5F15468A460446DFF8AC80F844BB
:102DF0000027D8E900103E46CDE9001010E03AF86F
:102E000016106A4602A800F0F9FB411C07D0217891
:102E1000890603D5E269391891420DD80744761C1A
:102E20002078800602D5E069B84205DDAE42E6DBD7
:102E30003AF816000028E2D1A069C01BA061204624
:102E4000FFF7A2FAD8E90010CDE90010002017E042
:102E50003AF818106A4602A800F0D0FBB0F1FF3F24
:102E600081460BD000250DF1080B05E0D4E90121C6
:102E70001BF8050090476D1C4D45F7D308F1010084
:102E8000B0428046E4DB206A384420622046FFF7E7
:102E900091FABDE8FF9F0000464300002DE9F04194
:102EA0008046D21D22F007020025D2E90002F52952
:102EB00015A614D0011E72F1000106DA0023D0EB32
:102EC000030063EB020211A608E0D8F800108B079C
:102ED00001D50FA602E0490701D50EA6012511462E
:102EE000002408F1240704E000F096F830323A5547
:102EF000641C50EA0102F7D12B4632462146404677
:102F0000BDE8F041FFF7C9BC000000002D00000043
:102F10002B0000002000000030B4002100F1240448
:102F200008E002F00705D208303542EA4372DB08B8
:102F30006554491C52EA0305F3D10468002310A22A
:102F4000250707D5A40600D421B1C46901230DA229
:102F5000641EC46130BCFFF7A0BC10B50446214616
:102F60001068FFF768FC02462046BDE810400023C9
:102F7000D2E7D21D22F00701D1E90023CCE70000FF
:102F800000000000300000002DE9F04791460F4698
:102F900080460446002614F8015B2DB100F030F89D
:102FA0000068405DC007F6D12B2D02D02D2D18D022
:102FB000641E4A463946204600F05EFA27B1396859
:102FC000A14201D1C7F800804FF0020471050BD572
:102FD0004042002803DDFFF721FC0460A007BDE8A4
:102FE000F08746F48066E4E70028F8DAFFF716FC7D
:102FF00004606FF00040F2E700487047E00E0010F8
:1030000010B500F005F8001D10BD00BFBD3F000069
:1030100000487047000F001030B5B0F10A024FEAC7
:10302000900E71F100034EEA817EB0EB0E0061EB71
:1030300091014FEA101E4EEA017E10EB0E0041EBAB
:1030400011114FEA102E4EEA016E10EB0E0041EB0B
:1030500011214FEA104E4EEA014E10EB0E0041EBEB
:103060001141401841F100014FEAD00040EA41709F
:103070004FEAD10110EB80054FEA810444EA9074D5
:1030800044EB01046D1944EB0404521BA3414FF0BF
:10309000000348BF0A3200D530BD401C41F1000199
:1030A00030BD00002DE9F04F04460D46D21D22F040
:1030B000070089B0D0E900974846394603F036FD4D
:1030C0000246F80F01D02D2307E02068810701D5C3
:1030D0002B2302E0202101EAC0038DF820300BB140
:1030E000012000E00020032A824601D0072A04DBE9
:1030F0002946204600F054F93FE12078800601D4AB
:103100000D2500E0E569C7F30A560D2D49DA0021C7
:103110004FEA175B08464FF00000002F00F4400014
:1031200007DA00EB80004FF4400100EBD07001EAB9
:1031300060008115012901DD4FF0FF3100224FEAC7
:10314000850CBCF1180F06D31346ACF118004FF0F4
:103150008052C24003E04FF4801323FA0CF30CF1C9
:103160000C0CBCF1200F04D3ACF1200C09FA0CF0CC
:1031700001E007FA0CF000294FF0004801DD18B912
:103180000FE00ED140450CD319EB02095F4121B984
:10319000404502D19F4329EA0209BBEB175F00D0EB
:1031A000761C2088000502D57B48784402E07A48E6
:1031B0007844193808AA302302F80A30037C0AF14F
:1031C0000101002E0AF1020A53546A4602DC4FF054
:1031D000300101E04FF031014FF001088DF800108F
:1031E00002D0A6F2FF3603E059EA470100D06B4E49
:1031F000002D02DC2178090704D54FF002082E21AA
:103200008DF80110C44600210BE0C7F303433F01D2
:10321000C35C491C6D1E02F80830052908F101083D
:1032200001DA002DF1DC00210CE000EB1973491CE0
:103230001B786D1E082902F808304FEA091908F1B9
:10324000010801DA002DF0DC21688B0602D516E0BA
:10325000A8F10108E04505DD02EB080313F8013C85
:10326000302BF5D0B8F1000F09DD02EB080313F89D
:10327000013C2E2B03D1090701D4A8F10108002D30
:1032800005DD3E2102F808106D1E08F10108407CA2
:10329000002E02F8080008F1010804DA2D20764219
:1032A00002F8080002E02B2002F808000A214FF47F
:1032B0007A70864208F101080BDB96FBF0F330339D
:1032C00002F8083096FBF0F308F1010800FB1366E2
:1032D00001E0642E0CDB642096FBF0F3303302F83F
:1032E000083096FBF0F308F1010800FB136601E0DB
:1032F0000A2E06DB96FBF1F0303002F8080008F1E8
:10330000010896FBF1F001FB1060303002F8080074
:10331000A16908F1010808EB050202EB0A00081A8E
:10332000A0612078C00602D42046FFF72DF8216A5C
:1033300008AE01EB0A00206204E0D4E9012116F88E
:10334000010B9047BAF1010AF7D22078C00602D5E6
:103350002046FFF719F86E4609E016F8010B3E28E3
:103360000FD0D4E901219047206A401C2062B8F1B7
:103370000108F2D22046FFF71DF809B00320BDE88E
:10338000F08F206A2844206203E0D4E90121302034
:1033900090476D1EEBD3F8E7A53F000002FCFFFF4E
:1033A0002DE9F0411F46044603260168072A01F46F
:1033B000006004DB08B116A505E016A503E008B11E
:1033C00015A500E015A521F010002060A069C01E21
:1033D000A0610FB1401EA0612046FEF7D5FF4FB19E
:1033E000D4E9012138469047206A401C2062C01C65
:1033F000206206E0206AFAE7D4E9012115F8010B02
:103400009047761EF8D22046FEF7D4FFBDE8F08143
:103410004E414E006E616E00494E4600696E660078
:1034200010B5436913B1AFF3008001E0FFF70CFA68
:10343000012010BD127800F124010A7000224A70A8
:103440000122EDE711684FF0FF32E9E710B543695B
:1034500013B1AFF3008001E0FFF7C2FC012010BD03
:10346000128800F1240182840022C2840122EDE747
:1034700011684FF0FF32E9E72DE9F05F824615460B
:103480008B4600270AF10104B9460078302801D0A4
:103490009DB113E014F8010B0127782803D05828B8
:1034A00001D045B10AE00DB1102D07D1002714F865
:1034B000010B102502E0082500E00A250026B04691
:1034C0000EE005FB080005FB06F101271FFA80F856
:1034D00001EB1046B6F5803F00D3B94614F8010B56
:1034E000294600F0D0F80028EBDABBF1000F05D038
:1034F0000FB1641E00E05446CBF80040B9F1000F54
:1035000006D0FFF78BF902210160C81EBDE8F09FCD
:1035100048EA0640FAE700002DE9F04781461646E2
:103520008AB0354878440DC88DE80D00324878449B
:10353000801C03AC0DC884E80D0041F69B300844A4
:10354000372190FBF1F290FBF1F5A5F1800501FB2D
:1035500012041B3C02D56442012000E00020DFF889
:1035600098A080460027FA44AAF1BE0A0EE0E007C0
:103570000AD03246684607EB470101230AEB810176
:1035800000F030FB8DE8070064107F1C002CEED1AA
:10359000194F7F44AE3F19E0E80715D007EB041040
:1035A0000DF1180A90E80E008AE80E00C068F0429B
:1035B00001D1981908903246012306A903A800F00A
:1035C00011FB03AB83E807006D10641C002DE3D1F1
:1035D0004FF0010332466946B8F1000F03A802D04C
:1035E00000F0EBFA01E000F0FDFAC9E90001C9F8CA
:1035F00008200AB0BDE8F087BC3C000070B5164654
:103600000C460546FFF7FCFC036893F8010101280E
:1036100006D0FF2C0FD8185D68B101202C7070BD4A
:10362000D3F807013246214603F207130344284624
:10363000BDE8704018474FF0FF3070BD7546FFF78A
:10364000DBFCAE4605006946534620F00700854680
:1036500018B020B5FEF7F4FDBDE820404FF000069D
:103660004FF000074FF000084FF0000B21F007016A
:10367000AC46ACE8C009ACE8C009ACE8C009ACE8AD
:10368000C0098D4670473A2800D2303820F0200219
:10369000412A01D3A2F13700884201D34FF0FF3015
:1036A000704710B50446AFF300802046BDE81040D7
:1036B000FEF7A9BD01491820ABBEFEE726000200B7
:1036C00070475FEA400C08BF91F0000F4FEA8C236F
:1036D0004FEAC12243EA51514FEA1C5018BF00F58E
:1036E000F0404FEA300018BF41F000415FEA6C5CE7
:1036F00000F02980BCF1FF3F08BF40F080407047D8
:10370000130C06BF12044FF0100C4FF0000C130EF8
:1037100004BF12020CF1080C130F04BF12010CF1CC
:10372000040C930F04BF92000CF1020CD30F04BFE2
:1037300052000CF1010C11464FF00002A0F11F00E5
:10374000A0EB0C00704711F0004F08BF704731F03C
:1037500000413FF4D5AF0B0C06BF09044FF0100C2D
:103760004FF0000C0B0E04BF09020CF1080C0B0FFC
:1037700004BF09010CF1040C8B0F04BF89000CF18C
:10378000020CCB0F04BF49000CF1010CCCF120035B
:10379000A0EB0C0022FA03F302FA0CF241EA030157
:1037A00000F10100704720F07F4C80EA030023F015
:1037B0007F47ACEB070303F57C5300F0004003F1B7
:1037C000FF032DE980494FEA154B09B44FEA144332
:1037D00025EA0B4E24EA03480FF2042606EB1327D2
:1037E00049083E785FEA320203FB0667C7F5000727
:1037F00007FB06F64FEA54374FEAD64606F10206B3
:1038000007FB066CCCF1005C4FEA1C472CEA074C26
:1038100007FB06F40CFB06F504EB15464FEA96167B
:1038200034BF00204FF000404FEAD13706FB07FCC1
:103830004FEA1C4C0CFB0BF7D21B03FB0CF761EBA4
:1038400007010CFB0EF7B0EB074072EB17420CFBC5
:1038500008F734BFA2EB0742B2EB074261EB174116
:103860004FEA0C444FEA910706FB07FC4FEA1C4C59
:103870000CFB0BF7B0EBC74072EB573203FB0CF7B6
:1038800034BFA2EBC742B2EBC74261EB57310CFB2E
:103890000EF7B0EBC70072EB57720CFB08F734BFA2
:1038A000A2EBC702B2EBC70261EB5771039F4FEA6D
:1038B000816141EA921104EBCC044FEAD1374FEA1F
:1038C000826206FB07FC42EA90124FEA80604FEAF0
:1038D0001C4C0CFB0BF7D21B03FB0CF761EB070135
:1038E0000CFB0EF7B0EB074072EB17420CFB08F72E
:1038F00034BFA2EB0742B2EB074261EB17414FEA3C
:103900008C554FEA910704EB9C2406FB07FC4FEA19
:103910001C4C0CFB0BF7B0EBC74072EB573203FBB0
:103920000CF734BFA2EBC742B2EBC74261EB573191
:103930000CFB0EF7B0EBC70072EB57720CFB08F7ED
:1039400034BFA2EBC702B2EBC70261EB577115EBB4
:103950004C254FEA816141EA92114FEA82624FEAB7
:10396000D13742EA901206FB07FC44F100044FEA0B
:1039700080604FEA1C4C0CFB0BF7D21B03FB0CF7CF
:1039800061EB07010CFB0EF7B0EB074072EB17423F
:103990000CFB08F734BFA2EB0742B2EB074261EB26
:1039A000174115EB1C154FEA813141EA92414FEA6C
:1039B000823242EA90424FEA80304FEA0C7644F17C
:1039C000000448EA03434EEA0B484FF0000EB2EB06
:1039D000080C71EB030724BF624639464EEB0E0E0E
:1039E0004FF0000B0018524149414BEB0B0BB2EB6F
:1039F000080C71EB03077BF1000B24BF62463946CC
:103A00004EEB0E0E4FF0000B0018524149414BEBAC
:103A10000B0BB2EB080C71EB03077BF1000B24BF1F
:103A2000624639464EEB0E0E51EA020718BF46F0C9
:103A3000010616EB0E7655F1000254F1000103D594
:103A4000BDE88901BDE80088BDE88901BDE80048FE
:103A5000B619524141EB0101A3F101037047808087
:103A60007F7E7D7C7B7A79787776767574737271D8
:103A700071706F6E6E6D6C6C6B6A6A696868676690
:103A800066656464636362616160605F5F5E5E5D22
:103A90005D5C5C5B5B5A5A59595858575756565596
:103AA00055555454535352525251515050504F4FF8
:103AB0004F4E4E4D4D4D4C4C4C4B4B4B4A4A4A4948
:103AC000494948484847474747464646454545448B
:103AD0004444444343434342424242414141002B18
:103AE0009C4630D477002BD01CB54FEA370703B47F
:103AF0004FF010004FF01001BAF1000F06D0BCF1EA
:103B0000000FDCBF40F0080040F008014FF000005B
:103B10000FBCBDE810400BF1010BBBF1010F08BF5A
:103B20005FEA170722BF12F1010211F101014FF004
:103B3000004143F1000300F0004043EA00007047F9
:103B4000F9D35708D0E746EA064613F1400F4FEA8B
:103B500016461FDD13F1200FDFBF16430A46002172
:103B600020335B42BED0C3F1200746EA064602FA84
:103B700007F74FEA164646EA0706C3F1200722FA7E
:103B800003F201FA07F721FA03F14FF0000342EACA
:103B90000702A7E746EA020646EA06464FEA164645
:103BA00046EA0106BCBF46EA0646360C4FF0000363
:103BB0004FF000024FF0000194E72DE9804C9A4647
:103BC000934670B491E8380007C831EA400C48BF0A
:103BD00034EA430C03D5FFF7E6FDFFF780FFF0BCA6
:103BE000BDE8008C2DE9804C9A46934670B491E86C
:103BF000380007C810F0804F08BF13F0804F03D182
:103C000000F005F8FFF76BFFF0BCBDE8008C20F07A
:103C10007F4780EA030023F07F4C07EB0C03A3F5FA
:103C20007C5300F00040A3F1FE0392F0000F00F07F
:103C3000B38095F0000F00F077802DE901494FEA3D
:103C400011404FEA144621EA004800FB06FC24EA32
:103C5000064708FB06F607FB08F800FB07F718EB1A
:103C600006484CEB164C4FEA124B18EB07484FEA4C
:103C700015464CEB174022EA0B4E0BFB06FC25EADF
:103C800006470EFB06F607FB0EFE0BFB07F71EEBC7
:103C9000064E4CEB164C4FF000061EEB074E4CEB5D
:103CA000174B18EB0B0840F1000018EB0E0B58EB0C
:103CB000000840F100008F1A4FF000013CBFC943DB
:103CC000661B14BFB5EB040C00213CBFC943F61BB7
:103CD0004FEA17444EEA8E0E27EA04454FEA1C4786
:103CE00004FB07622CEA074C05FB07F70CFB05F603
:103CF00004FB0CFC16EB074642EB174216EB0C4696
:103D000042EB1C421BEB060658EB0202414146EA1D
:103D10009E0601D5BDE80189B619524141EB01016A
:103D2000A3F10103BDE801894FEA14454FEA1147A9
:103D300024EA054621EA074C05FB07F406FB07F7D2
:103D40000CFB06F105FB0CFC11EB074144EB17449F
:103D50004FEA124711EB0C4144EB1C4422EA074C9A
:103D600005FB07F206FB07F70CFB06F605FB0CFC50
:103D700016EB074642EB174216EB0C4642EB1C458E
:103D80006A1854F1000148BF7047B619524141EB1F
:103D90000101A3F10103704795F0000F37D04FEAFE
:103DA00011424FEA144721EA024624EA074C02FB7B
:103DB00007F106FB07F70CFB06F402FB0CFC14EB07
:103DC000074441EB17414FEA154714EB0C4441EB14
:103DD0001C4125EA074C02FB07F506FB07F70CFB25
:103DE00006F602FB0CFC16EB074645EB174516EBF7
:103DF0000C4645EB1C42121951F1000148BF7047B7
:103E0000B619524141EB0101A3F1010370474FEA9A
:103E100014454FEA114724EA054621EA074C05FB01
:103E200007F106FB07F70CFB06F24FF0000605FB57
:103E30000CFC12EB074241EB174112EB0C4251EB29
:103E40001C4148BF7047921841EB0101A3F10103E7
:103E5000704710B50446204601F022FA18B101213E
:103E6000204600F001F810BD70B504460D46207BD9
:103E700010B1012818D108E02DB9204601F042FA0E
:103E80000120207300BF00BF0EE015B1012D09D144
:103E900003E0204601F036FA04E020698047002064
:103EA000207300BF00BF00BF00BF70BD10B501226E
:103EB0000221114800F0A1FF104800F077F94FF4FB
:103EC000FA500F49C8600846C0680E4908620846A3
:103ED000006D40F0040008650846406840F00200AC
:103EE00048600846406800F00900486088150649A7
:103EF00088614000C86110BD00C00B40C0C62D00E5
:103F0000F40400100080014000C0092070B5044690
:103F10000D4625610349204601F0EFF9002020738A
:103F200070BD0000A08601000020014908707047A4
:103F30005400001008B50549022002F031F9009044
:103F40006946024800F0A0F808BD00003C0D0010D2
:103F5000014601207047014601207047012070474B
:103F60000D4800780D4908700B480088000A487019
:103F700009480068000C887007480068000EC87087
:103F800005480079087104484079487102488079F1
:103F90008871012070470000550000107500001066
:103FA0000020214A108001F4004020B11046008812
:103FB00040F00100108001F4005028B11A48008838
:103FC00040F00200184A108001F0100028B1164895
:103FD000008840F00400144A108001F4804028B1A9
:103FE0001148008840F008000F4A108001F00800D6
:103FF00028B10D48008840F010000B4A108001F0F5
:10400000040028B10848008840F02000064A1080CB
:1040100001F0020028B10448008840F04000024A44
:1040200010800148008870475C00001010B5A12086
:104030000C4908702020487000208870C8700871F2
:104040004871022088710020C87107480078087202
:1040500005480088000A48720A22812002F0DAFC32
:1040600010BD00007C0D00105C0000100146012016
:10407000704701207047014601207047014601202A
:10408000704701207047000070B504460D46214678
:1040900003482A6800F00EF90646304670BD00005D
:1040A0009C000010012909D10A4A12680A4B0340FA
:1040B0001A43084BC43BC3F8C42009E041B9054A80
:1040C0001268054B83431A40024BC43BC3F8C4201B
:1040D00070470000C4C00F40DEF7EFEF70B5064632
:1040E0000D480468304600F019F8054635B1012D39
:1040F00006D0022D06D0032D08D105E0042505E0E9
:10410000012503E0022501E0082500BF00BFB4FB44
:10411000F5F4204670BD0000000000100146202983
:1041200003D20A46064B186804E0A1F12002044BB2
:104130001B1D186820FA02F303F00300704700000B
:10414000A8C10F4010B50A46202801D2034601E05D
:10415000A0F120031946202810D2124B1B6803241B
:104160008C40A343104CC4F8A8310E4B1B6802FAD4
:1041700001F423430C4CC4F8A83111E0094B1B1D7A
:104180001B6803248C40A343074CC4F8AC31054B97
:104190001B1D1B6802FA01F42343034CC4F8AC3125
:1041A00010BD0000A8C10F4000C00F4003490860C7
:1041B00000BF024909680029FBD1704724000010A4
:1041C00010B50C48006800F4806088B1022000F04F
:1041D0001DF80848001D006840F480600549A839B2
:1041E000C1F8AC000448406D80F001000249486508
:1041F00010BD0000A880024000C0092001460A0747
:10420000D00E01F0800202B1401C704701218140B4
:10421000014A11607047000040C10F4070B504466C
:104220000D46002004F58064206060604FF400704B
:10423000A0600020E06060612061A4F580642946F0
:1042400004F5836001F059F870BD10B5044604F51B
:10425000836001F025F808B1012010BD0020FCE7C3
:1042600070B503460C46254600211FE0D3F80064D4
:10427000D3F80404B04216D0D3F80404185C05F84F
:10428000010B03F204431868401C1860D868401CF6
:10429000D860D3E90006A3F20443B04205D1002060
:1042A000C3F8040401E0084670BD491C9142DDDBFF
:1042B0001046F9E72DE9F04104460F461546B84689
:1042C000002630E0D4F80004401CD4F804148842DE
:1042D00009D0D4F80004401CD4F80814884205D151
:1042E000D4F8040410B93046BDE8F08118F8010B89
:1042F000D4F800146054D4F80004401CC4F800043E
:10430000D4F80C04401CC4F80C0404F5836000F0DD
:10431000F9FFD4F80814D4F80004884202D1002030
:10432000C4F80004761CAE42CCDB2846DCE7000073
:104330002DE9F04704460D461646DDF820C020461C
:104340002246E9B2EFB24FEA40684FEA18601029FE
:1043500007DB00F1010808F0FF00A1F1100808F0E8
:10436000FF014FEA41684FEA1861DFF8C09059F841
:1043700020804FF0030909FA01F928EA0908DFF85B
:10438000ACA04AF82080D14659F8208006FA01F9FD
:1043900048EA09084AF82080DFF8908008F14008D0
:1043A00058F820804FF0030909FA01F928EA0908B2
:1043B000DFF8789009F1400949F82080C84658F89C
:1043C000208003FA01F948EA0908DFF8609009F152
:1043D000400949F82080BCF1000F12D0DFF84C8072
:1043E00008F1680858F822804FF0010909FA07F926
:1043F00048EA0908DFF8349009F1680949F8228091
:1044000011E0DFF8288008F1680858F822904FF092
:10441000010808FA07F829EA0809DFF8108008F10E
:10442000680848F82290BDE8F087000000C002400C
:104430000F48006C40F001000D4908640846006810
:1044400040F4407008600846006A48F202010843E0
:10445000074908624FF4407088610846006C20F4F8
:10446000806008640846006A20F4A0600862704713
:1044700000C0092010B5074800F012FF40B10648FF
:10448000406D80F0010004494865024800F03AFFA1
:1044900010BD0000E804001000C0092070B5002124
:1044A00000231F22047B012C25D1194C246804F41D
:1044B000E064C4F5E064C4F30721C1F10504E3B28C
:1044C0000A4104799C40E1B28468144021430C07FE
:1044D000210E104C90F900506155047804F01F052E
:1044E0000124AC4090F900506D09AD0005F1E025C4
:1044F000C5F800410AE0047804F01F050124AC402F
:10450000054D90F90060760945F8264070BD000021
:104510000CED00E000E400E080E100E070B505464D
:104520000C4616461A48854200D104E040F2162196
:1045300018A002F016FB012C02DB062C00DC04E0C4
:1045400040F2172113A002F00CFB012E0ED1E96CF2
:1045500004F00700012801DA002004E004F108005B
:10456000012202FA00F00143E96410E0E96C04F072
:104570000700012801DA002004E004F1080001220C
:1045800002FA00F047F67C6282431140E96470BD94
:10459000008001404C69625C447269766572735CAC
:1045A000736F757263655C6C7063313778785F70B8
:1045B000776D2E630000000070B505460C46164668
:1045C0001B48854200D104E040F2F91119A002F025
:1045D000C8FA022C02DB062C00DC04E04FF4FD716B
:1045E00014A002F0BEFA0EB1012E00D104E040F298
:1045F000FB1110A002F0B5FA76B9E96C04F00700DF
:10460000022801DA002001E00120A04047F67C6288
:1046100082431140E9640AE0E96C04F007000228D3
:1046200001DA002001E00120A0400143E96470BDEF
:10463000008001404C69625C447269766572735C0B
:10464000736F757263655C6C7063313778785F7017
:10465000776D2E630000000070B504460D460E48CD
:10466000844200D103E0D5210CA002F07AFA0DB10A
:10467000012D00D103E0D62108A002F072FA012D2D
:1046800004D1606840F00800606003E0606800F0FA
:104690000300606070BD0000008001404C69625CF6
:1046A000447269766572735C736F757263655C6C76
:1046B0007063313778785F70776D2E63000000008B
:1046C0001FB501214020FFF7EDFC02210C20FFF770
:1046D00039FD2748006C40F002002549086400209D
:1046E00003460122114600900220FFF721FE01201F
:1046F000039002AA00211F4800F014F900234CF295
:10470000503219461B4800F06DF901208DF8050064
:1047100000208DF8040001208DF8070000208DF89E
:10472000060001A9134800F027F8002202211148D1
:10473000FFF742FF00231A4602210E4800F052F90B
:10474000012202210B48FFF7E9FE0A4800F0AAF90E
:104750000121084800F0B2F801210648FFF77CFF6C
:104760000448406920F00100024948611FBD000073
:1047700000C009200080014070B505460C46444841
:10478000854200D104E040F2111142A002F0E9F9A3
:104790002078062800DC04E04FF489713DA002F087
:1047A000E0F9607810B16078012800D104E040F2AF
:1047B000131138A002F0D5F9E07810B1E0780128A3
:1047C00000D104E04FF48A7132A002F0CAF9A07857
:1047D00010B1A078012800D104E040F215112DA0FD
:1047E00002F0BFF9607801280AD1207800F00700B4
:1047F00000EB4001012088406969084368610CE0D2
:10480000207800F0070000EB4001012088402A4991
:1048100021EA0000696908406861E07801280CD14C
:10482000207800F0070000EB4000401C012101FA55
:1048300000F06969084368610CE0207800F0070027
:1048400000EB4000401C012181401B4888436969FE
:1048500008406861A07801280CD1207800F007009A
:1048600000EB4000801C012101FA00F06969084357
:1048700068610CE0207800F0070000EB4000801C2D
:10488000012181400C48884369690840686170BD16
:10489000008001404C69625C447269766572735CA9
:1048A000736F757263655C6C7063313778785F70B5
:1048B000776D2E6300000000FFFF1F0070B50446F7
:1048C0000D460E48844200D103E0ED210CA002F019
:1048D00048F90DB1012D00D103E0EE2108A002F04E
:1048E00040F9012D04D1606840F00100606003E0F0
:1048F000606800F00A00606070BD00000080014048
:104900004C69625C447269766572735C736F757230
:1049100063655C6C7063313778785F70776D2E6398
:10492000000000002DE9F04104460E4617462348DA
:10493000844200D103E09A2121A002F012F90EB1C5
:10494000012E00D103E09B211DA002F00AF9B84618
:104950003D463F2020600020606020676061A062CB
:10496000E064206526B9D8F80400401EE06022E02B
:10497000012E20D1687810B16878012800D103E0B9
:10498000B2210FA002F0EDF82878012805D0287890
:10499000022802D02878032800D103E0B32108A020
:1049A00002F0DFF8687800F00301287861F39F00D7
:1049B000216F08432067BDE8F081000000800140BE
:1049C0004C69625C447269766572735C736F757270
:1049D00063655C6C7063313778785F70776D2E63D8
:1049E000000000002DE9F04104460E4615461F4622
:1049F0002248844200D104E040F2931120A002F04A
:104A0000B0F8062E00DC04E04FF4CA711CA002F0DE
:104A1000A8F80FB1012F00D104E040F2951118A0C1
:104A200002F09FF8072E13D2DFE806F00406080A0A
:104A30000C0E1000A5610BE0E56109E0256207E0BE
:104A4000656205E0256403E0656401E0A56400BFDC
:104A500000BF216D072E02DA0120B04000E00020E7
:104A6000014321653FB9606840F002006060606802
:104A700000F009006060BDE8F081000000800140A6
:104A80004C69625C447269766572735C736F7572AF
:104A900063655C6C7063313778785F70776D2E6317
:104AA0000000000010B504460848844200D104E02C
:104AB00040F2011106A002F054F8606840F00200D4
:104AC0006060606800F00900606010BD0080014017
:104AD0004C69625C447269766572735C736F75725F
:104AE00063655C6C7063313778785F70776D2E63C7
:104AF000000000001648406B00F48060B8B14CF232
:104B00005030144908620846006D40F00400086502
:104B10000846406840F0020048600846406800F0DF
:104B20000900486088150A49C8614000886100BFD3
:104B30000748406B00F480600028F9D10121064845
:104B400080F830104FF440700149886170470000D0
:104B500000C0092000800140F40400102DE9B04F8E
:104B600088B082460C4691462020FFF7B7FA002114
:104B7000CDE90601DAF82800401CCDE90401DAF895
:104B8000080000F0040008B1042000E002200746FD
:104B90004FEAE0780023DDE90410A1FB092C00FBBB
:104BA00009C001FB0300A2FB071300FB073002FB57
:104BB0000800CDE902100023DDE90610A1FB042C5A
:104BC00000FB04C001FB03003C230021A2FB03CB3C
:104BD00000FB03B002FB0100CDE900C0604601A963
:104BE0000EC9FDF73FFB0546284608B0BDE8B08F6B
:104BF00000B589B001218804FFF754FA0121202073
:104C0000FFF7A0FA089820F00400001D089008980B
:104C100020F001000890089820F0080008900898FB
:104C200020F00200089008A9214800F0CFF82148A0
:104C3000006A20F410001F49086200200346012288
:104C4000142100901046FFF773FB00200346012259
:104C5000172100901046FFF76BFB01208DF818001C
:104C60001548079006A9124800F0D8F813491048D3
:104C700000F0CBF840F2DC5200210D4800F0C7F8FC
:104C80001F208DF808000020039001208DF81400EB
:104C9000049002A8FFF702FC00220221044800F061
:104CA000ACF801220821024800F0A7F809B000BDC5
:104CB00000C00B4000C0092048E80100804F1200EE
:104CC0000246D2F8E00F084008B1012070470020EA
:104CD000FCE70146486B704708B502213148FFF7F1
:104CE000EFFF012848D130480078B8B92D48FFF7C8
:104CF000F0FF2E4B1A685B68801843F100012B4AC5
:104D0000106051602A490868411C294A116008282E
:104D100001D3012100E00021234A117022480078CC
:104D2000012824D1224802680023204908684968E4
:104D3000FDF798FA1F490860C8220846016819481B
:104D4000FFF70CFF1C4908610846006900900846FF
:104D500018231721C26819A000F0FEFD0020124997
:104D600008700021114A1160516011490860022148
:104D70000C4800F03FF814E008210A48FFF7A0FFB4
:104D8000012804D10821074800F034F809E0402147
:104D90000448FFF795FF012803D14021014800F0A6
:104DA00029F808BD00C00B401400001008000010D6
:104DB000100000101C000010F404001025632530C2
:104DC0003764256325303764000000000D2202603F
:104DD0000022026142618261C26142628262826338
:104DE000C26341F6FF72C0F8D82FC0F8E82F0A68F6
:104DF00082607047C0F8E81F7047012A02D1C0F8EE
:104E0000DC1F01E0C0F8D81F70470161704730B562
:104E100000F1140404EB01131A6030BD2DE9F047D2
:104E200081460C46207820B96068401EC9F82800E9
:104E300011E02020FFF752F9002605460749606877
:104E4000B1FBF0F700233A4628463146FDF70AFA4F
:104E5000451EC9F82850BDE8F087000040420F0009
:104E600001463020084A10600848C0F8101200BF00
:104E700005480838006800F020000028F8D00248F3
:104E80000C3000687047000008C2005000C000509D
:104E900030B5ADF5017D05464FF4007101A8FDF771
:104EA00051FC2846FFF7D1F960B14FF4007201A917
:104EB0002846FFF7D5F9044624B1214601A8D5F8C4
:104EC000242490470DF5017D30BD000010B500F0A1
:104ED000B1F80448006820B102480068401E01494A
:104EE000086010BD2400001020204B4908604B488A
:104EF000D0F8A00100F0200030B100BF46480068A3
:104F000000F040000028F9D0032043499C39086094
:104F100000204249C1F8A8013F490C310860012036
:104F20003D49943908603E483C4984310860AA20D4
:104F30003A498C310860552008600120374980319A
:104F40000860AA2035498C31086055203349C1F8E2
:104F50008C0000BF31488830006800F08060002875
:104F6000F8D003202D4980310860AA202B49C1F8D0
:104F70008C00552029498C31086000BF27488830B3
:104F8000006800F04070B0F1407FF7D12320234942
:104F9000A4310860AA202149C1F8AC0055201F495E
:104FA000AC31086001201D49A0310860AA201B49CE
:104FB000AC31086055201949C1F8AC0000BF174852
:104FC000A830006800F480600028F8D0032013495E
:104FD000A0310860AA201149C1F8AC0055200F4942
:104FE000AC31086000BF0D48A830006800F4407084
:104FF000B0F5407FF7D10B480849C4310860002064
:105000000649C1F8C8010846006820F4704040F421
:105010008040086070470000A0C10F4000C00F40F2
:1050200063000500DE87280401480068704700001F
:105030005000001002480068401C01490860704799
:105040005000001030B56421481EB0F1807F01D3BC
:1050500001201BE0481E4FF0E022506150171F2234
:10506000002807DAD3061D0E0A4B00F00F04241F98
:105070001D5503E0D3061C0E074B1C5400BF002037
:105080004FF0E022906107201061002008B100BFBE
:10509000FEE730BD18ED00E000E400E008B50121B6
:1050A0004FF0402000F0C8F880B10948406840B196
:1050B0000848C068182300221721009006A000F0BD
:1050C0004BFC01214FF0402000F00EF808BD00001D
:1050D000F404001000C00B402563253037642563BD
:1050E000253037640000000002680A430260704700
:1050F000012904D1426842F00102426003E04268A3
:1051000022F001024260704700B589B001210220FF
:10511000FEF7C8FF00210220FFF714F801200490D9
:1051200000208DF814008DF8150001208DF81D0069
:1051300000208DF81E0001208DF81F0000208DF842
:105140001C001148069000208DF8200004A94FF0A3
:10515000402000F079F806A94FF0402000F016F842
:1051600001214FF04020FFF7C3FF01208DF8000020
:10517000002001900420029001208DF80C00684668
:10518000FFF78CF909B000BDA025260010B50A79FB
:1051900032B1012A07D0022A08D0032A0CD108E034
:1051A0000A6882610AE00A68C26107E00A6802626E
:1051B00004E00A68426201E000BFFEE700BF426906
:1051C0000B7903EB43040723A3409A4342614A79D6
:1051D0003AB142690B7903EB43040123A3401A431C
:1051E0004261CA7942B142690B7903EB43035B1C0C
:1051F00001249C40224342618A7942B142690B7981
:1052000003EB43039B1C01249C4022434261C26B7D
:105210000B79042404EB43040323A3409A43C263A1
:105220000A7A02F003020B79042404EB43039A4048
:10523000C36B1A43C26310BD02461068084008B130
:10524000012070470020FCE710B5026F22F00F022A
:105250000267002282600261C260426842F002027C
:105260004260426822F0020242600A791AB90A6872
:10527000521EC26010E0826A4B7903EB430407239D
:10528000A3409A438262026F0B791A430267026F4E
:105290004B7942EA830202674FF0FF32026010BD91
:1052A00070B50446204600F00EF805460DB9002002
:1052B00070BD6068A84201D90020F9E7204600F0DF
:1052C00029F80120F4E770B50446207A08B90020D7
:1052D00070BD207A012801D00020F9E7FFF7A4FE75
:1052E00005462068A84204D92068C0F1FF3046195D
:1052F00001E020682E1A3046EAE700220260416091
:105300000272704710B50446FFF78EFE2060012040
:10531000207210BD002101727047000008B52848B6
:1053200080680090009800F0040018B9009800F020
:105330000C00A8B10EE022480178224890F88020A5
:10534000D0F88000401C1F4BC3F8800002F07F00A3
:105350001A4611541A48007D00F001000028EAD1D5
:10536000009800F00200F8B1174890F88000164944
:1053700091F88410401A00F07F0090B1124890F824
:105380008410D0F88400401C0F4AC2F8840001F059
:105390007F001146085C0A49087000200B4908602C
:1053A00002E00120094908600548007D0449097EA2
:1053B00040EA01204EF21E0108400549088008BD60
:1053C00000000140580E0010D00D00109400001095
:1053D000980000100146087D00F0400008B1002050
:1053E00070470120FCE700001FB52048006840F42A
:1053F00040601E4908600020034601220A210090F7
:10540000FEF796FF0020034601220B210090FEF7D5
:105410008FFF4FF41640029003208DF80D000020FE
:105420008DF80C008DF80E0002A9114800F0B6F8B6
:1054300000208DF806008DF8070001208DF804008B
:105440008DF8050001A90A4800F014F80121084868
:1054500000F0B0FA00221146054800F0AFF9002232
:105460000221034800F0AAF91FBD000000C0092076
:105470000080094070B506460C4600253A48864231
:1054800008D03A48864205D03948864202D0394889
:10549000864200D104E04FF44A7137A001F063FB6B
:1054A000E07840B1E078012805D0E078022802D009
:1054B000E078032800D104E040F229312EA001F069
:1054C00052FBA07810B1A078012800D104E040F28E
:1054D0002A3129A001F047FB207810B1207801285B
:1054E00000D104E040F22B3123A001F03CFB6078B6
:1054F00010B16078012800D104E04FF44B711EA078
:1055000001F031FB45F00105E07830B1012806D00B
:10551000022807D0032808D108E000BF09E045F0C1
:10552000400506E045F0800503E000BF45F0C005FA
:1055300000BF00BF6078012801D145F00405207844
:10554000012801D145F00205A078012801D145F0DC
:1055500008050648864203D105F0CF00307202E00C
:1055600005F0CF00307270BD00C000400000014067
:105570000080094000C009404C69625C4472697651
:105580006572735C736F757263655C6C70633137E1
:1055900078785F756172742E6300000070B5044600
:1055A0000D467948844208D07848844205D078482E
:1055B000844202D07748844200D103E0C32176A020
:1055C00001F0D1FA687940B16879012805D068798D
:1055D000022802D06879032800D103E0C4216EA01C
:1055E00001F0C1FAA87910B1A879012800D103E02F
:1055F000C52169A001F0B7FA287958B128790128A6
:1056000008D02879022805D02879032802D02879E3
:10561000042800D103E0C6215FA001F0A4FA5A4893
:10562000844203D101210820FEF73CFD5748844203
:1056300003D101211020FEF735FD5548844203D1E6
:1056400001210806FEF72EFD5248844203D10121B4
:105650004806FEF727FD4D48844223D107202072DB
:105660000020207200E02678207D00F00100002854
:10567000F9D1802084F8300000BF207D00F02000A8
:105680000028FAD0002084F8300060602073206287
:10569000207484F84C0084F8540084F85000267E6E
:1056A000267D1AE0072020720020207200E0267874
:1056B000207D00F001000028F9D1802084F830001E
:1056C00000BF207D00F020000028FAD0002084F8E0
:1056D0003000606020732062267D2E48844202D113
:1056E000002084F824002046296801F067FB274841
:1056F000844203D1207B00F0C00602E0207B00F052
:10570000C006687930B1012806D0022807D00328E6
:1057100008D108E000BF09E046F0010606E046F0C7
:10572000020603E000BF46F0030600BF00BF287971
:10573000C0B146F008062879012806D0022806D014
:10574000032807D004280BD107E000BF09E046F08A
:10575000100606E046F0200603E046F0300600E0C2
:1057600000BF00BFA87928B1012802D146F0040685
:1057700001E000BF00BF00BF0448844201D126738E
:1057800000E0267370BD000000C000400000014032
:105790000080094000C009404C69625C447269762F
:1057A0006572735C736F757263655C6C70633137BF
:1057B00078785F756172742E630000002DE9F04106
:1057C00004460D4617463C48844208D03B48844274
:1057D00005D03B48844202D03A48844200D104E0DC
:1057E0004FF4277138A001F0BEF90FB1012F00D19D
:1057F00004E040F29D2134A001F0B5F9072D15D247
:10580000DFE805F00406080A0C0E110001260DE081
:1058100002260BE0042609E0082607E0802605E0C2
:105820004FF4807602E04FF4007600BF00BF2348BB
:10583000844212D15DB1012D09D0022D07D0052D72
:1058400005D0062D03D0032D01D0042D00D113E087
:1058500040F2B9211CA001F086F93DB1012D05D01F
:10586000022D03D0052D01D0062D00D104E040F219
:10587000BD2115A001F077F9012F0AD10F4884420C
:1058800003D160683043606013E06068304360605B
:105890000FE00A48844206D1606840F28F31B1437C
:1058A0000840606005E0606840F20731B14308409D
:1058B0006060BDE8F081000000C0004000000140D1
:1058C0000080094000C009404C69625C44726976FE
:1058D0006572735C736F757263655C6C706331378E
:1058E00078785F756172742E6300000070B50446AD
:1058F0000D460C48844208D00B48844205D00B4822
:10590000844202D00A48844200D104E04FF4E57199
:1059100008A001F028F90448844201D1257000E074
:10592000257070BD00C000400000014000800940AB
:1059300000C009404C69625C447269766572735CB0
:10594000736F757263655C6C7063313778785F75FF
:105950006172742E630000000FB4F8B507A80090C0
:105960004FF47A711148009B069AFCF7F3FC0F483C
:10597000FCF79BFE06460D4D00240BE015F8011BBD
:105980000B48FFF7B3FF00BF0948FFF723FD0028CE
:10599000FAD1641CB442F1D34FF47A710348FCF796
:1059A000AFFE00200090F8BC5DF814FB2C05001041
:1059B0000080094070B504460D461E48844208D058
:1059C0001D48844205D01D48844202D01C488442B0
:1059D00000D104E040F2DB311AA001F0C4F80DB1AF
:1059E000012D00D104E04FF4777116A001F0BBF84F
:1059F000012D10D11048844206D194F8300040F0B7
:105A0000800084F8300014E094F8300040F080000A
:105A100084F830000DE00848844205D194F8300045
:105A2000002084F8300004E094F83000002084F86E
:105A3000300070BD00C000400000014000800940FF
:105A400000C009404C69625C447269766572735C9F
:105A5000736F757263655C6C7063313778785F75EE
:105A60006172742E6300000030B504462046FEF7D4
:105A7000C5FB044941EA00458913284601F008F8AE
:105A800030BD0000000540001FB500F0BBF86420E9
:105A9000FCF7C0FB18208DF80000032002900020C6
:105AA000019001208DF80C006846FEF7F7FC00F02D
:105AB00031FB012000F052F800BF024800780028B6
:105AC000FBD01FBD6300001010B503469878FEF7A9
:105AD00095FB04460D4800680121A14008430C498C
:105AE000C1F844020948001D04609888C1F84C02BE
:105AF00000BF06484438006800F480700028F8D0E1
:105B00004FF4807001493C39086010BD44C2005018
:105B100000C0005010B504460CB1012000E0002088
:105B20004FF4807242EA0041094800F0B1FF0320BF
:105B30000849086000BF07484438006800F48070D6
:105B40000028F8D04FF4807002493C39086010BD3D
:105B50000005D80044C200507047000010B504464C
:105B60000CB1012000E000204FF4807242EA0041B5
:105B7000014800F08DFF10BD0005FE0010B50C4877
:105B80008088082801DD082401E009488488084845
:105B900022460168802000F03DFF0446044800686A
:105BA00020440349086008468088001B888010BD97
:105BB0008000001010B508480168002000F0F0FADD
:105BC0000446054800682044034908600846808868
:105BD000001B888010BD000080000010704700008E
:105BE00030B504462046FEF709FB044941EA00456A
:105BF0000349284600F04CFF30BD0000000540007E
:105C00000001200008B50C48006840F0C0400A4977
:105C100008600020034602461D210090FEF788FB25
:105C20000020034602461E210090FEF781FB4FF044
:105C3000C0400149C86108BD00C0092030B5044614
:105C40002046FEF7DBFA044941EA0045891328465D
:105C500000F01EFF30BD00000005400010B50446F6
:105C6000082C6FD2DFE804F06E04F2F16E6EF0EFF4
:105C700000F058FECD490978C809FFF7AFFFCB48BF
:105C8000C088CB498880C9480078C0F3411010B162
:105C900001287BD192E0C54840780C2877D2DFE814
:105CA00000F0060D8A158A1D333A41555E8300F0D7
:105CB0004FFB00B9FBE0FFF761FF7DE0002000F043
:105CC000B1FB00B9F3E000F035FE75E0012000F013
:105CD000A9FB00B9EBE000F02DFE6DE000BFB3487A
:105CE000007800F01F0030B9B048807840F08000A4
:105CF000B049087001E0002001E000BF012000B9B8
:105D0000D5E000F017FE57E000F0C6FA00B9CEE08B
:105D1000FFF734FF50E0002000F0F2FD0020A4491E
:105D2000888049E000BFA148007800F01F0018B942
:105D3000A1489F49086001E0002001E000BF012068
:105D400008B9B4E02FE1FFF719FF35E000F0E0FB00
:105D500000B9ACE000F0EEFDFFF7FEFE2CE000BF66
:105D60009248007800F01F00012814D19248007872
:105D700070B18E48007991490978884208DA8B48D9
:105D800000798F4908448A49086003E08EE012E0F8
:105D9000002004E001E0002001E000BF012000B984
:105DA00085E0FFF7EBFE07E000F092FC00B97EE033
:105DB00000F0C0FD00E07AE000BF7FE07B480078A3
:105DC00000F01F0020B1012803D002286CD16AE046
:105DD0006DE07648007918B174480079012861D1E6
:105DE00072484078042833D007DC78B1012811D0FC
:105DF000022819D0032854D11AE0202831D02128B4
:105E000033D022283BD023284BD141E06D4868494C
:105E100008604AE0FEF7A2F828B16A4864490860C1
:105E2000FFF7ACFE41E03CE06648614908603CE0B9
:105E30005E494888FEF78FF848B162485C490860BF
:105E4000FFF79CFE31E0AAE0A5E08BE038E028E017
:105E500056494888FEF77CF810B100F06BFD24E04D
:105E60001FE05848524908601FE0FEF779F828B152
:105E700054484F490860FFF781FE16E011E04B4996
:105E80004888FEF7FBF810B100F054FD0DE008E083
:105E900046494888FEF7EAF810B100F04BFD04E0EF
:105EA00000BF00BF03E002E001E007E000BF802088
:105EB00000F026FD00203E49888000BF00BF72E050
:105EC0003A480078C00980BB3948808870B3FFF732
:105ED00071FE3748808848BB34480078C0F34110D1
:105EE00010B1012839D100E0E1E73048007800F036
:105EF0001F0020B1012803D002282CD12AE0D6E7C8
:105F00002A48007918B129480079012821D1274869
:105F1000407820B102280BD0202819D111E0FEF7DB
:105F2000A8F820B100F006FD16E018E019E00FE037
:105F30001E494888FEF79FF810B100F0FBFC0BE00B
:105F400006E0FEF79EF810B100F0F4FC04E000BF9C
:105F500000BFACE7ABE7AAE700E0A8E701E000F08C
:105F6000F1FC20E0114800780121B1EBD01F02D1F3
:105F7000FFF704FE0EE00F48007800F0800048B103
:105F80000C48007800F07F000A4908700846007845
:105F900000F09EFC07E00020FFF766FD03E0802094
:105FA000FFF762FD00BF00BF10BD000088000010B9
:105FB00080000010620000106300001070000010EC
:105FC000710000107500001070B50546032D0BD14F
:105FD000FDF7E6FF044605480088A04203D00348C9
:105FE0000480FEF723F800BF00BF70BD90000010D2
:105FF00010B50446022C02D0032C06D102E0FDF7B6
:1060000099FF02E0FDF790FF00BF00BF10BD000048
:106010002DE9F0473B48D0F8009009F00800E8B1BE
:106020000820384908310860374800F01DFD37481E
:10603000FEF716FF054605F0100018B100F0EAFB68
:1060400000F040FC05F0080038B105F0040010B184
:1060500000F080FC01E000F039FC51E009F00400A0
:1060600000284CD04FF00008264830300768002444
:106070003EE0474500D13DE00120A040384058B304
:106080000120A04040EA080866080120A0401D4900
:106090003831086000BF1B48006800F0200000286D
:1060A000F9D018481430056804F00100A8B954B9B3
:1060B00005F0040038B11648006820B114480168A2
:1060C0000120884713E0124850F8260020B11048FC
:1060D00050F826100220884708E00D4850F82600A6
:1060E00020B10B4850F826100320884700BF641CDD
:1060F000202CBED300BF042002490831086000BF35
:10610000BDE8F08700C200500005FE000002FE005E
:10611000BC70000000B51D48406820F070501B495D
:1061200048600846406840F0A05048600846C06893
:10613000174908401549C8600846C0681549084312
:106140001249C8600846006920F4402008610846EA
:10615000006940F4802008610F48006840F000406A
:106160000D49C439C1F8C4001A200C49086000BFA9
:106170000A48001D006800F01A001A28F8D100F043
:1061800049FB002000F0A4FB00BD000000C002405D
:10619000CFFFFFCF10000020C4C00F40F4CF00504D
:1061A000F0B505460F4605F00F00012101EB800018
:1061B0001349086000BF12480838046804F40060FE
:1061C0000028F8D0C4F30904002605E00D48D0F8F3
:1061D000180238603F1D761CE01CB6EB900FF5D31B
:1061E00000200749086041F24820284100F00100E2
:1061F00018B90549284600F06DFC2046F0BD0000A6
:1062000028C2005000C000500005F20070B50546DD
:106210000E46284600F0A0FB1AA12846FCF733FAE8
:10622000041E1DD0A01CFCF721FA1749C8600846BF
:10623000C068164908620846006D40F00400086511
:106240000846406840F0020048600846406800F098
:106250000900486088150E4988614000C8610FE058
:106260000CA12846FCF70FFA041E09D0A0783128AB
:1062700003D101200449486002E00020024948603F
:1062800070BD0000524E0000F40400100080014078
:1062900000C00920543D000010B52848007800F0E7
:1062A0001F0010B101283ED13AE02448C0780128EF
:1062B00004D0022807D003282ED118E02048214C12
:1062C000206012232AE02049002204E0087808B167
:1062D00048880144521C194880789042F6D10878C9
:1062E00008B9002010BD174801604B8816E0174917
:1062F000002204E0087808B108780144521C0F48D5
:1063000080789042F6D1087808B90020EAE70D4875
:1063100001600068037801E00020E3E700BF04E0CB
:1063200000BF0020DEE70020DCE700BF05488088D2
:10633000984201D9034CA3800120D3E788000010C4
:10634000FC6F0000800000100E7000005270000012
:106350002C48007800F01F0020B1012806D0022848
:106360004BD117E02848294B186048E028480078AE
:1063700068B124480079274B1B78984207DA00203F
:10638000254B188018801846204B186001E000202B
:10639000704734E01B48007900F08F0101F0800065
:1063A00028B101F00F034FF48030984001E0012044
:1063B000884002461648007810B901F00F00C8B9AD
:1063C000164800681040A8B115480068104008B190
:1063D000012000E00020104B188011480068104098
:1063E00008B1012000E000200B4B18801846074B35
:1063F000186001E00020CBE701E00020C8E700BF03
:106400000120C5E788000010600000108000001027
:106410006300001070000010750000106400001090
:106420006800001070B506463348007800F01F0081
:1064300020B101281DD0022858D11CE02E484088E8
:10644000012813D146B100F0E3FA2C48008840F04F
:1064500002002A4908800BE0002000F0D9FA274802
:10646000008820F002002549088001E0002070BD6E
:106470003EE00020FBE72048007900F08F0404F0A4
:10648000800028B104F00F014FF48030884001E013
:106490000120A04005461A48007820B304F00F0000
:1064A00008B3184800682840E8B113484088C0B9CC
:1064B00046B1204600F024FA1348006828431249E8
:1064C000086012E011480068284008B10120CEE7BA
:1064D0002046FFF7C9FA0C480068A8430A4908603B
:1064E00003E00020C3E70020C1E701E00020BEE791
:1064F00000BF0120BBE70000880000106000001012
:106500006300001064000010680000106C000010B0
:106510002DE9F04100276548007800F01F000028B1
:106520007ED16248807800287BD0614D83E0687816
:10653000022804D0042853D0052876D152E0687987
:106540005A498978884245D1584880785949087015
:10655000287959490870002403E00020574908555C
:10656000641C042CF9D3012414E00120A0405449F8
:106570000968084010B12046FFF732FB4FF4803025
:10658000A0404F490968084018B144F08000FFF767
:1065900027FB641C102CE8D34FF001104849086019
:1065A000002048490860484908600120FFF7B2FA16
:1065B000E87900F0400030B14448008840F0010024
:1065C000424908800BE04148008820F001003F4923
:1065D000088004E02E466888064435462BE024E017
:1065E000EF7822E007BBA87800F08F0404F0800069
:1065F00028B104F00F014FF48030884001E0012001
:10660000A04080462E48006840EA08002C490860F7
:106610002846FFF759FA2046FFF710FB204601E015
:106620003FE00DE000F03EF900BF00BF2E462878A5
:106630000644354600BF287800287FF478AF26E06E
:1066400000201C490870012414E00120A0401C49CE
:106650000968084010B12046FFF7C2FA4FF48030B5
:10666000A04017490968084018B144F08000FFF7BE
:10667000B7FA641C102CE8D34FF0011010490860E1
:1066800000201049086010490860FFF743FA0748E6
:10669000807808490978884202D00020BDE8F0815E
:1066A00001E00020FAE700BF0120F7E788000010B2
:1066B0000E700000630000107000001071000010E8
:1066C00064000010680000106C00001060000010F2
:1066D0002DE9F84F4FF00008C14600200090824697
:1066E0004648007800F01F0001287DD1444800781A
:1066F00010B90020BDE8F88F4FF0000B414C71E05D
:106700006078022804D004280DD0052864D122E046
:1067100060793B490978884204D02646608806445F
:1067200034465FE058E094F8028094F803904FF00C
:10673000000A3248007940450CD1304880784845FD
:1067400008D14FF0010B304810F8080000902E4996
:1067500001F8089040E02948007940453BD1A078F5
:1067600000F08F0707F0800028B107F00F014FF409
:106770008030884001E00120B84005461F488078FD
:10678000484515D121480068284320490860204821
:106790000068A8431E4908602046FFF795F938466F
:1067A000FFF74CFA384600F07DF84AEA050A12E095
:1067B000009881450FD10AEA050060B913480068C6
:1067C000A8431249086012480068A84310490860AD
:1067D0003846FFF705FA00BF00BF2646207806447A
:1067E000344600BF207800E002E0002888D101E0B4
:1067F00000207FE700BF58467CE7000088000010BB
:10680000630000100E7000007100001064000010A2
:106810006800001000201249086008201149C1F8E2
:106820004C0201200E49086008200E49C1F84C02B4
:1068300000BF0B484838006800F480700028F8D08A
:106840004FF0FF300649103908600649C1F834029C
:106850000349403908600C200249C1F8040270471E
:1068600048C2005000C00050002008490880084974
:106870000870084908704FF00110074908600020AF
:106880000649086006490860704700006000001073
:106890006200001063000010640000106800001027
:1068A0006C00001030B504462046FDF7A7FC0449F3
:1068B00041EA00458913284600F0EAF830BD00009F
:1068C0000005400010B5FFF7CFFF10BD7047000076
:1068D00010B5044644F080004FF4807242EA004153
:1068E000064800F0D5F844F080004FF4807242EA88
:1068F0000041024800F0CCF810BD00000005D000B7
:1069000030B504462046FDF779FC044941EA0045CC
:106910000349284600F0BCF830BD000000054000E7
:106920000001010010B502490020FFF739FC10BD3D
:106930008800001010B500221146802000F06AF88F
:1069400010BD000010B502490020FFF729FC10BD62
:1069500075000010704700000FB438B505A800900E
:106960004FF47A710D48009B049AFBF7F3FC0CA1DD
:106970000A48FBF7B9FE0948FBF797FE0446214693
:10698000064800F00FF84FF47A710448FBF7B8FEA0
:106990000020009038BC5DF814FB000014090010C2
:1069A0000D0A00002DE9F04707460D462E463F2010
:1069B000B6FBF0F934464FF0000822E03F2C0FD927
:1069C000012012490870301BC1193F22822000F0BB
:1069D00021F83F3C00BF0D4800780028FBD10EE0B5
:1069E00001200A490870301BC1192246822000F09C
:1069F00011F800BF054800780028FBD103E008F13A
:106A00000108C845DAD900BFBDE8F087540000107E
:106A100070470000F0B506460D46144606F00F001C
:106A2000022101EB80000D4908600D48C0F82442A6
:106A3000002705E0286809490C3908602D1D7F1CD6
:106A4000E01CB7EB900FF5D300200449086005491E
:106A5000304600F03FF82046F0BD000028C200504C
:106A600000C000500005FA001021074A11600749D4
:106A7000C1F8100200BF04490839096801F010018B
:106A80000029F8D07047000008C2005000C0005034
:106A900010220E4B1A600E4AC2F8100200BF0B4AB9
:106AA000083A126802F01002002AF8D01022074BB0
:106AB0001A60074AC2F8101200BF044A083A126866
:106AC00002F01002002AF8D07047000008C20050FF
:106AD00000C0005010B504460B4610201149086054
:106AE0002046FDF78BFB4FF4A06141EA00400E49C0
:106AF000C1F8100200BF0B480838006800F0100011
:106B00000028F8D01020074908600748C0F8103264
:106B100000BF04480838006800F010000028F8D0D2
:106B200010BD000008C2005000C00050490050EAEB
:106B3000C12018BF04204A0D18BF40F0010040F2E8
:106B4000FF72B2EB515F08BF40F00200012808BF9E
:106B50000520704730380A2801D2012070470020F4
:106B6000704700BFFEE700BFFEE700000048704727
:106B700028000010004870473D0000100720024622
:106B80005D4B19684FF6FF0319405C4B0B4343EA1A
:106B90000221594B196000BFFEF754FAFDF748FC7B
:106BA000FDF78EFDFEF724F8FEF7AEFAFEF76CFF58
:106BB000FEF71AFC0020524908700DE05148406D64
:106BC00080F001004F4948654F48FDF7EFFA4C4807
:106BD0000078401C4A490870494800783228EDDBAB
:106BE0004AA0FFF7B9FE55A0FFF7B6FEFFF7C2FFB8
:106BF000044621465DA0FFF7AFFEFFF7B7FF04464E
:106C000021465EA0FFF7A8FE40A0FFF7A5FE42F2D6
:106C100010715D48FDF702FB5C485B49C1F8240434
:106C20005B495C48FDF772F95B495C48FEF765FB20
:106C30005A48FEF767FB0020594908705949086017
:106C4000594A10605060594948600021574880F8FF
:106C50003010FDF74FFF4EE04B48FEF719F9FDF7F6
:106C600009FC2848406D00F4806020B900214948A3
:106C7000FDF7FAF802E04748FDF7EBF82148406BD2
:106C800000F4806080B9494890F8300001280BD0AA
:106C90000020464948600121444880F830104FF4F4
:106CA00040701849886114E01648406B00F4807009
:106CB00078B93E4890F8300002280AD000203B49BD
:106CC00048600221394880F830104FF440700D4977
:106CD00088613748C0683749884208D93448C06855
:106CE0003549884203D800203049886003E03048A5
:106CF000C0682E498860AFE70CED00E00000FA059F
:106D00002000001000C00920A08601002A2A2A2A9B
:106D10002A2A2A2A2A2A2A2A2A2A2A2A2A2A2A2AD3
:106D20002A2A2A2A2A2A2A2A2A2A2A2A2A2A2A2AC3
:106D30002A2A2A2A2A2A2A2A2A0000004C504331C9
:106D40003736382052756E6E696E67206174203157
:106D500030304D487A202020202020202020202064
:106D600020202020202020202000000050726F6A68
:106D7000656374203A202573200000004461746527
:106D8000203A2025732000009C0000100D620000B6
:106D9000AD3E0000D404001020A10700E80400105C
:106DA000140000101000001008000010F40400107F
:106DB00000C00B40308C1100804F12002DE9F04FC5
:106DC0008BB004468946002009907048844204D163
:106DD0000620FDF783F9074616E06D48844204D18A
:106DE0000820FDF77BF907460EE06A48844204D18B
:106DF0003020FDF773F9074606E06748844203D167
:106E00003220FDF76BF907464FF0FF3B002007905B
:106E1000069000252E464FF001084DE00020089016
:106E200040E00898404400FB09FC0020010741EACB
:106E3000171138070022A0FB083E01FB08E100FB08
:106E400002106246CDE900300023DDE90001FBF7C6
:106E500009FACDE9040104980390DDF814A0039821
:106E6000B0F1004F04D90398404203900AF1010A9F
:106E7000BAF1000F02D0BAF5803F00D90FE00398B5
:106E800058450BD2DDF80CB00026554608980790FF
:106E9000CDF81880BBF1000F00D106E000BF0898C4
:106EA000401C089008984045BBD300BFBBF1000FC1
:106EB00000D104E008F10108B8F10F0FAED900BF0E
:106EC000002185EA01007140084302D10BB0BDE802
:106ED000F08F3809069900FB01FC08460799084421
:106EE0000021A0FB052301FB053100FB0610034632
:106EF000CDE9002060460021FBF7B4F9029002982A
:106F0000814503D90298A9EB000B02E00298A0EB9F
:106F1000090B64200BFB00F0B0FBF9FBBBF1030F86
:106F200032D21B48844216D1207B40F0800020736F
:106F3000280A40EA066020712570207B00F07F005F
:106F40002073F021069801EA0010079901F00F0163
:106F50000843A06216E0207B40F080002073280ADE
:106F600040EA066020712570207B00F07F002073CE
:106F7000F021069801EA0010079901F00F0108437B
:106F800084F828000120099009989FE700C000407C
:106F9000000001400080094000C0094010B50029F0
:106FA0000AD00878002807D005487844FBF7F2FBA0
:106FB000002801D0002010BD0248784410BD000018
:106FC000720200006A02000010B500290AD0087899
:106FD000002807D005487844FBF7DCFB002801D0E7
:106FE000002010BD0248784410BD0000620200007D
:106FF0005A020000FBF797BDFCF754B812010002DB
:1070000002000008C91F0220000101020301090259
:107010004300020100803209040000010202005E08
:1070200005240010010524010101042402020524A5
:107030000600010705810310000209040100020A8D
:1070400000005E07050202400000070582024000C2
:107050000000040309041C034E00580050002000E7
:10706000530045004D00490043004F004E004400CE
:10707000200024034E005800500020004C00500017
:1070800043003100370078007800200056004300AC
:107090004F004D0020001A03440045004D004F00F2
:1070A0003000300030003000300030003000300060
:1070B0000A03560043004F004D0000005D5C0000D5
:1070C000C95F0000F15F0000000000000000000048
:1070D00000000000000000000000000000000000B0
:1070E00000000000000000000000000000000000A0
:1070F00000000000000000000000000030313233CA
:1071000034353637383941424344454640305800DB
:10711000303132333435363738396162636465660D
:107120004030780004000008000000000000000269
:10713000000100001000000000000000000000003E
:1071400030313233343536373839616263646566DD
:107150007870003031323334353637383941424374
:10716000444546585000000002400000000000A0C6
:107170000000000005400000000000C80000000002
:107180000C4000000000409C00000000194000007E
:107190000020BCBE0000000034400000BFC91B8EB0
:1071A00000000004B5400000504BCFD06607E2CF8E
:1071B000010000006C4100003E8251AADFEEA734BE
:1071C00001000000D9420000DCB5A0E23A301F9770
:1071D000FFFFFFFFB4450000FD25A0C8E9A3C14F94
:1071E000FFFFFFFFFF3F00000000008000000000E5
:1071F000FF3F000000000080000000004873000016
:10720000000000109C00000008210000E473000052
:107210009C000010A4140000242100001C000000A9
:1072200043000000F8FFFFFF0C0000000E0000000C
:107230000F0000002E0000001001000043000000BD
:10724000F8FFFFFF00404040404040404040414187
:10725000414141404040404040404040404040402B
:1072600040404040400502020202020202020202C5
:1072700002020202022020202020202020202002C2
:107280000202020202029090909090901010101052
:1072900010101010101010101010101010101010EE
:1072A0000202020202028888888888880808080882
:1072B000080808080808080808080808080808084E
:1072C0000202020240000000000000000000000076
:1072D00000000000000000000000000000000000AE
:1072E000000000000000000000000000000000009E
:1072F000000000000000000000000000000000008E
:10730000000000000000000000000000000000007D
:10731000000000000000000000000000000000006D
:10732000000000000000000000000000000000005D
:10733000000000000000000000000000000000004D
:10734000000000000000000000E1F5050000000062
:10735000000000000000000000000000000000002D
:10736000000000000000000000000000000000001D
:10737000323031382F30372F32362030393A3237E9
:107380003A31360000536572766F636F6E74726FB8
:107390006C6C657200000000000000000080250099
:1073A00000000008000001000000000000000000D4
:1073B00000000000000000000000000000000000CD
:1073C00000000000000000000000000000000000BD
:1073D00000000000000000000000000000000000AD
:0473E00000000000A9
:04000005000020CD0A
:00000001FF
