:020000040000FA
:1020000038130010252200002D2200002F2200008E
:1020100031220000332200003522000000000000C1
:102020000000000000000000000000003722000057
:1020300039220000000000003B220000FD4C00009F
:102040003F220000D14E00003F2200003F2200004E
:102050003F2200007D4F0000A94F00003F220000FA
:102060003F220000A54400003F2200003F22000064
:102070003F2200003F2200003F2200003F220000DC
:102080003F2200003F2200003F2200003F220000CC
:102090003F2200008D4000003F2200003F22000050
:1020A000095700003F2200003F2200003F220000AD
:1020B0003F2200003F2200003F2200003F2200009C
:1020C0003F2200003F2200003F22000000F002F803
:1020D00000F090F80AA090E8000C82448344AAF132
:1020E0000107DA4501D100F085F8AFF2090EBAE830
:1020F0000F0013F0010F18BFFB1A43F0010318473C
:102100001C4500003C450000103A24BF78C878C147
:10211000FAD8520724BF30C830C144BF04680C60ED
:10212000704700000023002400250026103A28BF35
:1021300078C1FBD8520728BF30C148BF0B60704739
:102140006E2900F08983702900F04781662904F028
:102150006281652904F05F81672904F05C8161294F
:1021600004F05B8103681B0A28BF41F080016929E4
:1021700000F0B880642900F0B580752900F0B280C5
:102180006F2900F07086782900F01381E92900F0AA
:102190000B86E42900F00886F52900F00586EF2972
:1021A00000F06D86F82900F012810368DB0928BF72
:1021B00041F08001632901F0C380732901F0C880D8
:1021C000E32901F0D380F32901F0D8800020704783
:1021D0001FB500F0A3FE04000020002104F07AF8EF
:1021E000401C60600020002104F05EF8E0601FBD2C
:1021F00010B510BD01F0A8F91146FFF7E9FF04F092
:102200004AF801F0D4F903B4FFF7F2FF03BC01F080
:10221000D7F9000044F21A1100FB01F00138FDD19A
:10222000704700000948804709480047FEE7FEE77D
:10223000FEE7FEE7FEE7FEE7FEE7FEE7FEE7FEE776
:1022400004480549034A054B70470000194D00003A
:10225000CD200000380F001038130010380F001088
:102260007CB51D4616460C00009001D02044401E4F
:10227000074B7B442A4669460190304600F015FD25
:1022800005461CB10020694600F022FD28467CBDB1
:10229000650A000070B5044685690068C10601D56D
:1022A000302600E02026C00707D070BDD4E9012108
:1022B00030469047206A401C20626D1EF6D570BDE6
:1022C00070B5044685690078C00707D170BDD4E9B0
:1022D000012120209047206A401C20626D1EF6D507
:1022E00070BD00002DE9F0410646002410687529F4
:1022F000314616A510D000F01BFA002802DA404241
:1023000013A507E031688A0701D512A502E0490745
:1023100004D511A5012401E000F013FA00210A22DE
:1023200006F1240709E0B0FBF2FCB0FBF2F302FB7C
:102330001C00303078541846491C0028F3D123463D
:102340002A463046BDE8F04100F02DBA00000000FA
:102350002D0000002B00000020000000F0B40D460E
:102360000188090502D5214C7C4402E01F4C7C44C5
:102370000E34002100F1240608E002F00F071209D4
:10238000E75D42EA03721B097754491C52EA0307CE
:10239000F3D102780023120704D5702D06D009B1BD
:1023A000022311342246F0BC00F0FDB901231034A1
:1023B000F8E770B504460D462146106800F0C1F9F3
:1023C000024629462046BDE870400023C6E7D21DDC
:1023D00022F00703D3E90023C0E70368126843F043
:1023E000200303600823C3610023B7E7B041000066
:1023F0002DE9F05F894604464FF0000ADFF874B11A
:10240000FB44C0F820A02046E1688847002874D02B
:10241000252806D0D4E901219047206A401C20627B
:10242000F1E700265F462046E168884720280546F8
:1024300007DB312D05D2781910F8200C08B10643BE
:10244000F1E7B00701D526F00406C4F81CA0002768
:10245000C4F818A02A2D09D0284603F011FF38B37C
:1024600004EB8708303DC8F8185019E059F8041BF0
:10247000204604EB87029161E1688847012F0546F9
:1024800018D1E069002820DA26F020061DE0D8F8EF
:10249000180000EB800005EB40003038C8F8180049
:1024A0002046E1688847054603F0EAFE0028EED1A1
:1024B000012F0AD02E2D08D12046E16888477F1CC5
:1024C0000546022F46F02006C4DBA069002803DA87
:1024D000404246F00106A061F00701D026F0100648
:1024E0006C2D0BD0682D09D04C2D39D06A2D35D0EC
:1024F000742D35D07A2D33D016E038E0E1682F46C0
:1025000020468847B842054609D16C2F26D04FF4A3
:102510008060E168064320468847054604E06C2F4A
:102520001AD04FF4807006430DB3A5F1410019286D
:1025300002D8203546F400664A46294620462660E1
:102540004E46FFF7FDFD80B101280BD0F61D26F0A9
:10255000070000F1080956E74020E4E78020D8E7AB
:102560000020D6E706F104094DE7284652E7206A25
:10257000BDE8F09F4041000070B5064600F0D4F879
:102580000468054630460A22002100F083FC2C60D6
:1025900070BD30B505460B462A4613F8014B12F8BC
:1025A000010B08B1A042F8D01CB1002802D06D1C6C
:1025B000F1E7284630BD10B5431C02E010F8011BBE
:1025C00071B18107FAD14FF0013202C88C1A8C43E5
:1025D00014EAC211F9D0C01A0A0603D0C01E10BDF9
:1025E000C01A10BD0A0401D0801E10BD0902FCD023
:1025F000401E10BD421E12F8013F002BFBD111F806
:10260000013B002B02F8013BF9D170474FF000026B
:102610000429C0F0128010F0030C00F01B80CCF1F4
:10262000040CBCF1020F18BF00F8012BA8BF20F862
:10263000022BA1EB0C0100F00DB85FEAC17C24BFB6
:1026400000F8012B00F8012B48BF00F8012B704760
:102650004FF0000200B5134694469646203922BF3B
:10266000A0E80C50A0E80C50B1F12001BFF4F7AF86
:10267000090728BFA0E80C5048BF0CC05DF804EB68
:10268000890028BF40F8042B08BF704748BF20F8D6
:10269000022B11F0804F18BF00F8012B704700008B
:1026A0004FF0013C50F8042B51F8043B9A4221D1E1
:1026B000A2EB0C03934313EACC1317D150F8042B6D
:1026C00051F8043B9A4215D1A2EB0C03934313EA51
:1026D000CC130BD150F8042B51F8043B9A4209D18A
:1026E000A2EB0C03934313EACC13DBD04FF00000B2
:1026F000704700BFD01A01BAB1FA81F101F0180198
:1027000022FA01F0CB40C1F12001DBB2C0B2C01A05
:102710002CFA01F3D11A914311EAC311E6D17047A3
:10272000704770477047000000487047D80E00108F
:1027300009684A0501D540B27047C905FCD500B209
:10274000704709684A0501D5C0B27047C905FCD574
:1027500080B2704770B50C460546012A05D028782E
:10276000800600D5EA69002302E0012305E05B1C36
:10277000934202D2E05C0028F9D1A869E618C01A99
:10278000A861286A184428622846FFF783FD04E000
:10279000D5E9012114F8010B9047B442F8D328463B
:1027A000FFF78EFD70BD2DE9F0470D469946924624
:1027B000044600F124080168880604D5E06921F088
:1027C0001001216000E00120A84201DD471B00E06C
:1027D0000027A1697A1902EB0900081AA061207884
:1027E000C00602D42046FFF755FD002608E0D4E9D4
:1027F00001211AF806009047206A401C761C2062CE
:102800004E45F4DB2078C0060AD52046FFF742FD8E
:1028100006E0D4E9012130209047206A401C206264
:10282000381EA7F10107F4DC07E0D4E9012118F80C
:1028300005009047206A401C2062281EA5F1010572
:10284000F3DC2046FFF73CFD2078000602D502208D
:10285000BDE8F0870120FBE711680268006A5305B4
:1028600001D508700AE0D30501D5088006E01306FB
:1028700003D5C217C1E9000200E0086001207047DB
:1028800070472DE9FF4F0C461E464FF0FF378BB0C7
:10289000D2E90001DDF860800A908A46C1F30A554A
:1028A00005B93D46002108464FF00000BAF1000F7F
:1028B00000F4400005DA00EB80004FF4400101EA2B
:1028C00050004FEA9059B9F1010F00DDB9460A985E
:1028D00050EA4A000ED044F61050A5F2FF354543A9
:1028E0002F14B8F1000F1ED07542291E1EDDC9F14C
:1028F00000021CE0B8F1010F4FF0000001D03021C0
:1029000003E0F24305E02154401CB042FBDB3046BB
:102910000022002121540B99C1F80880C1E9002050
:102920000FB0BDE8F08FBD1B6D1CDEE74A4600DA34
:10293000694206A800F076FD06AB93E8070003ABFA
:1029400083E8070050460A9900F041FE8DE8070031
:10295000A0F500501F3800900398002D0ADD42F2C8
:102960001F014A460844002303A90390684601F06A
:10297000AAF809E0A0F500504A461F38002303A931
:102980000390684601F0B4F88DE807000004000CDD
:1029900003D04FF0FF30410800E01046B8F1000FBF
:1029A00003D00022009215461EE0751E05D400F0EB
:1029B000B9FA303262556D1EF9D5B346012208438B
:1029C00002D000227F1C04E02078302801D10022B0
:1029D0007F1E002A099784D01DE0112D07DA00F030
:1029E000A1FA303262556D1C50EA0102F5D108435C
:1029F00002D00098C8B10EE00021681E05E0235CFB
:102A0000625C63542254401E491C8142F7DBAB4692
:102A1000A81B401E0990002004F80B000B98099A8F
:102A2000C0F80880C0E9002B7AE711264FF00008B3
:102A300057E72DE9F04F88460446D21D22F00701E2
:102A400091B0D1E90001CDE90A0103F005FC02468D
:102A50000B98C00F01D02D2007E02068810701D519
:102A60002B2002E0202101EAC000032A099001D0B6
:102A7000072A05DB03464146204600F017FC0BE120
:102A80002078800601D5E06900E00620B8F1650FE6
:102A9000814606D0B8F1660F18D0B8F1670F70D133
:102AA00031E00020B9F1110F009001DB112301E0AA
:102AB00009F101030AAA01A90CA8FFF7E2FEDDE96A
:102AC0000C70002609F10105834647E001204B46C2
:102AD00000904FF000470AAA01A90CA8FFF7D1FE09
:102AE000DDE90DB00C995D46002610B909F1010031
:102AF0000D18B9EB050003D4C0F1FF3609F101054B
:102B0000A5EB09002BE0B9F1010F01DA4FF0010943
:102B10000020B9F1110F0090484601DD112300E0BB
:102B200003460AAA01A90CA8FFF7ABFEDDE90C7069
:102B30004D4600268346207800070AD4AB4500DACC
:102B40005D4601A8012D04DD411911F8011C302951
:102B500007D04F4502DA17F1040F04DA012082464C
:102B60000FE06D1EEEE7002F02DCED1B3E4403E09C
:102B7000781CA84200DD7D1CB81B00F1010A4FF053
:102B800000472078000703D4AA4501DB4FF0FF3A45
:102B90000021B7F1004F0DF143088DF8431024D008
:102BA00002202B23002F01DA7F422D230A21021E4F
:102BB000A0F1010000DC5FB197FBF1FC97FBF1F2A3
:102BC00001FB1C7C17460CF1300C08F801CDEEE738
:102BD000A8F1010003702188090501D5452100E015
:102BE0006521A0F1010800F8011C09980FA9A1EBCB
:102BF0000807FF1D00B10120411901EBEA70A1692E
:102C00003844081A401EA0612078C00602D420462D
:102C1000FFF740FB099828B1D4E901219047206AC9
:102C2000401C20622078C00622D52046FFF732FBE8
:102C30001EE0002E04DBB34502DD01A8805D00E04C
:102C40003020D4E901219047206A401C2062761C84
:102C5000AAF101005FEA000A0AD100F05FF9C0683A
:102C60000168405CD4E901219047206A401C206241
:102C7000281EA5F10105DCDC07E0D4E9012118F8E4
:102C8000010B9047206A401C2062381EA7F1010703
:102C9000F3DC2046FFF714FB032011B041E60000EF
:102CA00001694A1C02610878704700B58FB0CDE910
:102CB00001310021059105497944CDE90310114600
:102CC0006846FFF795FB0FB000BD0000E5FFFFFF72
:102CD0000A6802F8010B0A607047D1E900239A42A2
:102CE00002D2531C0B601070704700002DE9FF5F8B
:102CF00015468A460446DFF8AC80F8440027D8E938
:102D000000103E46CDE9001010E03AF816106A4671
:102D100002A800F0F9FB411C07D02178890603D5F1
:102D2000E269391891420DD80744761C2078800654
:102D300002D5E069B84205DDAE42E6DB3AF816009E
:102D40000028E2D1A069C01BA0612046FFF7A2FACB
:102D5000D8E90010CDE90010002017E03AF818106B
:102D60006A4602A800F0D0FBB0F1FF3F81460BD0CD
:102D700000250DF1080B05E0D4E901211BF8050041
:102D800090476D1C4D45F7D308F10100B0428046D5
:102D9000E4DB206A384420622046FFF791FABDE860
:102DA000FF9F00005A3800002DE9F0418046D21DF7
:102DB00022F007020025D2E90002F52915A614D059
:102DC000011E72F1000106DA0023D0EB030063EB71
:102DD000020211A608E0D8F800108B0701D50FA653
:102DE00002E0490701D50EA601251146002408F18D
:102DF000240704E000F096F830323A55641C50EA9B
:102E00000102F7D12B46324621464046BDE8F0414B
:102E1000FFF7C9BC000000002D0000002B000000DF
:102E20002000000030B4002100F1240408E002F08A
:102E30000705D208303542EA4372DB086554491C65
:102E400052EA0305F3D10468002310A2250707D531
:102E5000A40600D421B1C46901230DA2641EC4617B
:102E600030BCFFF7A0BC10B5044621461068FFF740
:102E700068FC02462046BDE810400023D2E7D21D80
:102E800022F00701D1E90023CCE700000000000098
:102E9000300000002DE9F04791460F468046044679
:102EA000002614F8015B2DB100F030F80068405D99
:102EB000C007F6D12B2D02D02D2D18D0641E4A4606
:102EC0003946204600F05EFA27B13968A14201D1A7
:102ED000C7F800804FF0020471050BD5404200286E
:102EE00003DDFFF721FC0460A007BDE8F08746F48E
:102EF0008066E4E70028F8DAFFF716FC04606FF05C
:102F00000040F2E700487047D80E001010B500F0FE
:102F100005F8001D10BD00BFBD330000004870471C
:102F2000F80E001030B5B0F10A024FEA900E71F1C0
:102F300000034EEA817EB0EB0E0061EB91014FEA97
:102F4000101E4EEA017E10EB0E0041EB11114FEA0C
:102F5000102E4EEA016E10EB0E0041EB11214FEAEC
:102F6000104E4EEA014E10EB0E0041EB114140189D
:102F700041F100014FEAD00040EA41704FEAD1012F
:102F800010EB80054FEA810444EA907444EB01049D
:102F90006D1944EB0404521BA3414FF0000348BFDA
:102FA0000A3200D530BD401C41F1000130BD0000A7
:102FB0002DE9F04F04460D46D21D22F0070089B0DE
:102FC000D0E900974846394603F046F90246F80F23
:102FD00001D02D2307E02068810701D52B2302E0D3
:102FE000202101EAC0038DF820300BB1012000E060
:102FF0000020032A824601D0072A04DB2946204606
:1030000000F054F93FE12078800601D40D2500E05E
:10301000E569C7F30A560D2D49DA00214FEA175B1F
:1030200008464FF00000002F00F4400007DA00EBE4
:1030300080004FF4400100EBD07001EA6000811580
:10304000012901DD4FF0FF3100224FEA850CBCF170
:10305000180F06D31346ACF118004FF08052C2404F
:1030600003E04FF4801323FA0CF30CF10C0CBCF1C9
:10307000200F04D3ACF1200C09FA0CF001E007FAA0
:103080000CF000294FF0004801DD18B90FE00ED117
:1030900040450CD319EB02095F4121B9404502D1EB
:1030A0009F4329EA0209BBEB175F00D0761C2088FA
:1030B000000502D57B48784402E07A487844193804
:1030C00008AA302302F80A30037C0AF10101002E1D
:1030D0000AF1020A53546A4602DC4FF0300101E063
:1030E0004FF031014FF001088DF8001002D0A6F228
:1030F000FF3603E059EA470100D06B4E002D02DC99
:103100002178090704D54FF002082E218DF801100F
:10311000C44600210BE0C7F303433F01C35C491CD5
:103120006D1E02F80830052908F1010801DA002DAA
:10313000F1DC00210CE000EB1973491C1B786D1EBB
:10314000082902F808304FEA091908F1010801DAE4
:10315000002DF0DC21688B0602D516E0A8F10108ED
:10316000E04505DD02EB080313F8013C302BF5D0F8
:10317000B8F1000F09DD02EB080313F8013C2E2B18
:1031800003D1090701D4A8F10108002D05DD3E2176
:1031900002F808106D1E08F10108407C002E02F8AC
:1031A000080008F1010804DA2D20764202F8080030
:1031B00002E02B2002F808000A214FF47A708642C0
:1031C00008F101080BDB96FBF0F3303302F808300E
:1031D00096FBF0F308F1010800FB136601E0642E92
:1031E0000CDB642096FBF0F3303302F8083096FBDA
:1031F000F0F308F1010800FB136601E00A2E06DB7C
:1032000096FBF1F0303002F8080008F1010896FB57
:10321000F1F001FB1060303002F80800A16908F1FC
:10322000010808EB050202EB0A00081AA0612078E9
:10323000C00602D42046FFF72DF8216A08AE01EB44
:103240000A00206204E0D4E9012116F8010B90473E
:10325000BAF1010AF7D22078C00602D52046FFF75E
:1032600019F86E4609E016F8010B3E280FD0D4E994
:1032700001219047206A401C2062B8F10108F2D277
:103280002046FFF71DF809B00320BDE8F08F206A43
:103290002844206203E0D4E90121302090476D1ECC
:1032A000EBD3F8E7B934000002FCFFFF2DE9F04151
:1032B0001F46044603260168072A01F4006004DB68
:1032C00008B116A505E016A503E008B115A500E0B4
:1032D00015A521F010002060A069C01EA0610FB1EB
:1032E000401EA0612046FEF7D5FF4FB1D4E9012171
:1032F00038469047206A401C2062C01C206206E0CD
:10330000206AFAE7D4E9012115F8010B9047761EEF
:10331000F8D22046FEF7D4FFBDE8F0814E414E00C2
:103320006E616E00494E4600696E660010B54369D5
:1033300013B1AFF3008001E0FFF70CFA012010BDDC
:10334000127800F124010A7000224A700122EDE790
:1033500011684FF0FF32E9E710B5436913B1AFF3DD
:10336000008001E0FFF7C2FC012010BD128800F1CF
:10337000240182840022C2840122EDE711684FF00B
:10338000FF32E9E72DE9F05F824615468B460027BC
:103390000AF10104B9460078302801D09DB113E04C
:1033A00014F8010B0127782803D0582801D045B123
:1033B0000AE00DB1102D07D1002714F8010B1025DC
:1033C00002E0082500E00A250026B0460EE005FBD5
:1033D000080005FB06F101271FFA80F801EB1046F3
:1033E000B6F5803F00D3B94614F8010B294600F02A
:1033F000D0F80028EBDABBF1000F05D00FB1641E46
:1034000000E05446CBF80040B9F1000F06D0FFF7BA
:103410008BF902210160C81EBDE8F09F48EA064012
:10342000FAE700002DE9F047814616468AB0354894
:1034300078440DC88DE80D0032487844801C03ACF8
:103440000DC884E80D0041F69B300844372190FBFD
:10345000F1F290FBF1F5A5F1800501FB12041B3C94
:1034600002D56442012000E00020DFF898A08046E9
:103470000027FA44AAF1BE0A0EE0E0070AD032465D
:10348000684607EB470101230AEB810100F030FB9E
:103490008DE8070064107F1C002CEED1194F7F448B
:1034A000AE3F19E0E80715D007EB04100DF1180A3C
:1034B00090E80E008AE80E00C068F04201D1981929
:1034C00008903246012306A903A800F011FB03ABC4
:1034D00083E807006D10641C002DE3D14FF0010359
:1034E00032466946B8F1000F03A802D000F0EBFAAB
:1034F00001E000F0FDFAC9E90001C9F808200AB0AE
:10350000BDE8F087D031000070B516460C46054680
:10351000FFF7FCFC036893F80101012806D0FF2C9B
:103520000FD8185D68B101202C7070BDD3F8070169
:103530003246214603F2071303442846BDE8704093
:1035400018474FF0FF3070BD7546FFF7DBFCAE4605
:1035500005006946534620F00700854618B020B59F
:10356000FEF76EFEBDE820404FF000064FF000076A
:103570004FF000084FF0000B21F00701AC46ACE81B
:10358000C009ACE8C009ACE8C009ACE8C0098D4688
:1035900070473A2800D2303820F02002412A01D367
:1035A000A2F13700884201D34FF0FF30704710B5C9
:1035B0000446AFF300802046BDE81040FEF723BE6E
:1035C00001491820ABBEFEE72600020070475FEA03
:1035D000400C08BF91F0000F4FEA8C234FEAC12244
:1035E00043EA51514FEA1C5018BF00F5F0404FEA32
:1035F000300018BF41F000415FEA6C5C00F02980A8
:10360000BCF1FF3F08BF40F080407047130C06BF7D
:1036100012044FF0100C4FF0000C130E04BF1202F6
:103620000CF1080C130F04BF12010CF1040C930FE2
:1036300004BF92000CF1020CD30F04BF52000CF136
:10364000010C11464FF00002A0F11F00A0EB0C008E
:10365000704711F0004F08BF704731F000413FF450
:10366000D5AF0B0C06BF09044FF0100C4FF0000C47
:103670000B0E04BF09020CF1080C0B0F04BF09016B
:103680000CF1040C8B0F04BF89000CF1020CCB0F62
:1036900004BF49000CF1010CCCF12003A0EB0C009D
:1036A00022FA03F302FA0CF241EA030100F10100ED
:1036B000704720F07F4C80EA030023F07F47ACEB9B
:1036C000070303F57C5300F0004003F1FF032DE9ED
:1036D00080494FEA154B09B44FEA144325EA0B4ED3
:1036E00024EA03480FF2042606EB132749083E7824
:1036F0005FEA320203FB0667C7F5000707FB06F621
:103700004FEA54374FEAD64606F1020607FB066C2D
:10371000CCF1005C4FEA1C472CEA074C07FB06F48F
:103720000CFB06F504EB15464FEA961634BF002055
:103730004FF000404FEAD13706FB07FC4FEA1C4C24
:103740000CFB0BF7D21B03FB0CF761EB07010CFB27
:103750000EF7B0EB074072EB17420CFB08F734BFD3
:10376000A2EB0742B2EB074261EB17414FEA0C4470
:103770004FEA910706FB07FC4FEA1C4C0CFB0BF7CA
:10378000B0EBC74072EB573203FB0CF734BFA2EB30
:10379000C742B2EBC74261EB57310CFB0EF7B0EBFF
:1037A000C70072EB57720CFB08F734BFA2EBC702DD
:1037B000B2EBC70261EB5771039F4FEA816141EAA7
:1037C000921104EBCC044FEAD1374FEA826206FB38
:1037D00007FC42EA90124FEA80604FEA1C4C0CFB57
:1037E0000BF7D21B03FB0CF761EB07010CFB0EF789
:1037F000B0EB074072EB17420CFB08F734BFA2EBAB
:103800000742B2EB074261EB17414FEA8C554FEA92
:10381000910704EB9C2406FB07FC4FEA1C4C0CFBB5
:103820000BF7B0EBC74072EB573203FB0CF734BF1A
:10383000A2EBC742B2EBC74261EB57310CFB0EF76C
:10384000B0EBC70072EB57720CFB08F734BFA2EB6A
:10385000C702B2EBC70261EB577115EB4C254FEA7B
:10386000816141EA92114FEA82624FEAD13742EA1E
:10387000901206FB07FC44F100044FEA80604FEA17
:103880001C4C0CFB0BF7D21B03FB0CF761EB070185
:103890000CFB0EF7B0EB074072EB17420CFB08F77E
:1038A00034BFA2EB0742B2EB074261EB174115EBC5
:1038B0001C154FEA813141EA92414FEA823242EAD5
:1038C00090424FEA80304FEA0C7644F1000448EA17
:1038D00003434EEA0B484FF0000EB2EB080C71EBBD
:1038E000030724BF624639464EEB0E0E4FF0000B25
:1038F0000018524149414BEB0B0BB2EB080C71EB3A
:1039000003077BF1000B24BF624639464EEB0E0ED7
:103910004FF0000B0018524149414BEB0B0BB2EB3F
:10392000080C71EB03077BF1000B24BF624639469C
:103930004EEB0E0E51EA020718BF46F0010616EBD9
:103940000E7655F1000254F1000103D5BDE889015E
:10395000BDE80088BDE88901BDE80048B6195241BC
:1039600041EB0101A3F10103704780807F7E7D7CE4
:103970007B7A7978777676757473727171706F6E01
:103980006E6D6C6C6B6A6A696868676666656464AC
:10399000636362616160605F5F5E5E5D5D5C5C5B36
:1039A0005B5A5A59595858575756565555555454A5
:1039B000535352525251515050504F4F4F4E4E4D03
:1039C0004D4D4C4C4C4B4B4B4A4A4A49494948484F
:1039D000484747474746464645454544444444438F
:1039E00043434342424242414141002B9C4630D432
:1039F00077002BD01CB54FEA370703B44FF0100007
:103A00004FF01001BAF1000F06D0BCF1000FDCBF7F
:103A100040F0080040F008014FF000000FBCBDE886
:103A200010400BF1010BBBF1010F08BF5FEA170754
:103A300022BF12F1010211F101014FF0004143F1E7
:103A4000000300F0004043EA00007047F9D3570834
:103A5000D0E746EA064613F1400F4FEA16461FDD4F
:103A600013F1200FDFBF16430A46002120335B42CB
:103A7000BED0C3F1200746EA064602FA07F74FEA2E
:103A8000164646EA0706C3F1200722FA03F201FAB6
:103A900007F721FA03F14FF0000342EA0702A7E714
:103AA00046EA020646EA06464FEA164646EA010696
:103AB000BCBF46EA0646360C4FF000034FF000024A
:103AC0004FF0000194E72DE9804C9A46934670B47C
:103AD00091E8380007C831EA400C48BF34EA430C8B
:103AE00003D5FFF7E6FDFFF780FFF0BCBDE8008CD3
:103AF0002DE9804C9A46934670B491E8380007C887
:103B000010F0804F08BF13F0804F03D100F005F88C
:103B1000FFF76BFFF0BCBDE8008C20F07F4780EA28
:103B2000030023F07F4C07EB0C03A3F57C5300F05C
:103B30000040A3F1FE0392F0000F00F0B38095F077
:103B4000000F00F077802DE901494FEA11404FEA5C
:103B5000144621EA004800FB06FC24EA064708FB5D
:103B600006F607FB08F800FB07F718EB06484CEBD6
:103B7000164C4FEA124B18EB07484FEA15464CEB30
:103B8000174022EA0B4E0BFB06FC25EA06470EFB0C
:103B900006F607FB0EFE0BFB07F71EEB064E4CEB83
:103BA000164C4FF000061EEB074E4CEB174B18EB74
:103BB0000B0840F1000018EB0E0B58EB000840F129
:103BC00000008F1A4FF000013CBFC943661B14BFB1
:103BD000B5EB040C00213CBFC943F61B4FEA174468
:103BE0004EEA8E0E27EA04454FEA1C4704FB0762A3
:103BF0002CEA074C05FB07F70CFB05F604FB0CFC55
:103C000016EB074642EB174216EB0C4642EB1C4202
:103C10001BEB060658EB0202414146EA9E0601D51F
:103C2000BDE80189B619524141EB0101A3F101033D
:103C3000BDE801894FEA14454FEA114724EA0546D9
:103C400021EA074C05FB07F406FB07F70CFB06F11E
:103C500005FB0CFC11EB074144EB17444FEA1247FC
:103C600011EB0C4144EB1C4422EA074C05FB07F224
:103C700006FB07F70CFB06F605FB0CFC16EB0746EC
:103C800042EB174216EB0C4642EB1C456A1854F106
:103C9000000148BF7047B619524141EB0101A3F141
:103CA0000103704795F0000F37D04FEA11424FEAF9
:103CB000144721EA024624EA074C02FB07F106FBFF
:103CC00007F70CFB06F402FB0CFC14EB074441EB7A
:103CD00017414FEA154714EB0C4441EB1C4125EA10
:103CE000074C02FB07F506FB07F70CFB06F602FB89
:103CF0000CFC16EB074645EB174516EB0C4645EB5F
:103D00001C42121951F1000148BF7047B6195241C7
:103D100041EB0101A3F1010370474FEA14454FEA5B
:103D2000114724EA054621EA074C05FB07F106FB8B
:103D300007F70CFB06F24FF0000605FB0CFC12EB3C
:103D4000074241EB174112EB0C4251EB1C4148BFBB
:103D50007047921841EB0101A3F10103704710B5C0
:103D60000446204601F0CDF818B10121204600F0AC
:103D700001F810BD70B504460D46207B10B1012836
:103D800018D108E02DB9204601F0EDF8012020738C
:103D900000BF00BF0EE015B1012D09D103E02046A0
:103DA00001F0E1F804E0206980470020207300BFA3
:103DB00000BF00BF00BF70BD10B51F481F4908609D
:103DC0001F48204908600846006801781EA002F0DC
:103DD00053F91C48006841781BA002F04DF91948BE
:103DE0000068817818A002F047F916480068C17889
:103DF00015A002F041F913480068416812A002F0D2
:103E00003BF910480068017A0FA002F035F90D481F
:103E10000068B0F809100CA002F02EF909480068FB
:103E2000D0F80B1008A002F027F906480068C17B03
:103E300005A002F021F910BD700000107400001000
:103E40005C0000105800001025580D0A000000000A
:103E500070B504460D4625616421204601F07EF8C8
:103E60000020207370BD00000020014908707047D9
:103E70007800001008B50549022001F00DFD009002
:103E80006946024800F0A0F808BD0000340D00109B
:103E9000014601207047014601207047012070470C
:103EA0000D4800780D4908700B480088000A4870DA
:103EB00009480068000C887007480068000EC87048
:103EC00005480079087104484079487102488079B2
:103ED00088710120704700007900001099000010DF
:103EE0000020214A108001F4004020B110460088D3
:103EF00040F00100108001F4005028B11A480088F9
:103F000040F00200184A108001F0100028B1164855
:103F1000008840F00400144A108001F4804028B169
:103F20001148008840F008000F4A108001F0080096
:103F300028B10D48008840F010000B4A108001F0B5
:103F4000040028B10848008840F02000064A10808C
:103F500001F0020028B10448008840F04000024A05
:103F600010800148008870478000001010B5A12023
:103F70000C4908702020487000208870C8700871B3
:103F80004871022088710020C871074800780872C3
:103F900005480088000A48720A22812002F0CAF807
:103FA00010BD0000740D00108000001001460120BB
:103FB00070470120704701460120704701460120EB
:103FC000704701207047000070B504460D46214639
:103FD00003482A6800F0CCF80646304670BD000061
:103FE00090080010012909D10A4A12680A4B0340BF
:103FF0001A43084BC43BC3F8C42009E041B9054A41
:104000001268054B83431A40024BC43BC3F8C420DB
:1040100070470000C4C00F40DEF7EFEF10B50A464E
:10402000202801D2034601E0A0F1200319462028F0
:1040300010D2124B1B6803248C40A343104CC4F8CD
:10404000A8310E4B1B6802FA01F423430C4CC4F850
:10405000A83111E0094B1B1D1B6803248C40A343AE
:10406000074CC4F8AC31054B1B1D1B6802FA01F468
:104070002343034CC4F8AC3110BD0000A8C10F406D
:1040800000C00F4010B500F0F7FD10BD10B5094895
:10409000006800F4806058B1022000F015F805486F
:1040A000001D006840F480600249A839C1F8AC00E6
:1040B00010BD0000A880024001460A07D00E01F0A2
:1040C000800202B1401C704701218140014A116009
:1040D0007047000040C10F4070B504460D460020F7
:1040E00004F58064206060604FF40070A0600020E0
:1040F000E06060612061A4F58064294604F5836076
:1041000000F02CFF70BD10B5044604F5836000F08C
:10411000F8FE08B1012010BD0020FCE770B5034691
:104120000C46254600211FE0D3F80064D3F80404B0
:10413000B04216D0D3F80404185C05F8010B03F262
:1041400004431868401C1860D868401CD860D3E944
:104150000006A3F20443B04205D10020C3F80404D2
:1041600001E0084670BD491C9142DDDB1046F9E7CD
:104170002DE9F04104460F461546B846002630E0CA
:10418000D4F80004401CD4F80414884209D0D4F8B0
:104190000004401CD4F80814884205D1D4F8040463
:1041A00010B93046BDE8F08118F8010BD4F80014BE
:1041B0006054D4F80004401CC4F80004D4F80C0483
:1041C000401CC4F80C0404F5836000F0CCFED4F865
:1041D0000814D4F80004884202D10020C4F8000476
:1041E000761CAE42CCDB2846DCE700002DE9F04728
:1041F00004460D461646DDF820C020462246E9B2A8
:10420000EFB24FEA40684FEA1860102907DB00F16F
:10421000010808F0FF00A1F1100808F0FF014FEAC3
:1042200041684FEA1861DFF8C09059F820804FF0DC
:10423000030909FA01F928EA0908DFF8ACA04AF8ED
:104240002080D14659F8208006FA01F948EA090889
:104250004AF82080DFF8908008F1400858F8208064
:104260004FF0030909FA01F928EA0908DFF8789004
:1042700009F1400949F82080C84658F8208003FA1F
:1042800001F948EA0908DFF8609009F1400949F8A6
:104290002080BCF1000F12D0DFF84C8008F16808D4
:1042A00058F822804FF0010909FA07F948EA09088D
:1042B000DFF8349009F1680949F8228011E0DFF84D
:1042C000288008F1680858F822904FF0010808FA91
:1042D00007F829EA0809DFF8108008F1680848F8AB
:1042E0002290BDE8F087000000C0024000B585B014
:1042F0002148006840F400401F49C439C1F8C40097
:104300001E48006C40F001001C49086401208865CB
:10431000002003460246014600900220FFF766FF98
:104320001648006C20F48060144908641448D0F8E2
:10433000B40040F480601249C1F8B4000846D0F8D7
:10434000AC0040F48060C1F8AC0000200346024697
:104350000A2100900220FFF749FF15208DF8040084
:104360000020029001208DF810000520039001A884
:1043700000F058F805B000BDC4C00F4000C00920CF
:104380000080024010B50D4800F0BBFD40B10C4864
:10439000406D80F001000A494865084800F0E3FDDF
:1043A0000748406D00F4806020B900210548FFF700
:1043B000E1FC02E00348FFF7D2FC10BDDC0C00106A
:1043C00000C00920C80C001010B506490648FFF7C8
:1043D0003FFD6421054800F0C1FD044800F0C3FD25
:1043E00010BD0000B93D0000C80C0010DC0C00102E
:1043F00010B5FFF7C7FF01F071F910BD07200246A5
:10440000064B19684FF6FF031940054B0B4343EA6F
:104410000221024B196000BF704700000CED00E064
:104420000000FA0570B5002100231F22047B012C37
:1044300025D1194C246804F4E064C4F5E064C4F3A5
:104440000721C1F10504E3B20A4104799C40E1B2BD
:104450008468144021430C07210E104C90F9005041
:104460006155047804F01F050124AC4090F9005018
:104470006D09AD0005F1E025C5F800410AE00478BA
:1044800004F01F050124AC40054D90F90060760949
:1044900045F8264070BD00000CED00E000E400E0AF
:1044A00080E100E010B501211B4800F0BDFA88B39F
:1044B0001A48006842F21071884203D8084617492A
:1044C000086004E01548006864381449086013481F
:1044D000006811498861114800684008C8610F48A8
:1044E0000068400808620D480068400848620846B5
:1044F000006D40F00F0008650846406840F002007B
:1045000048600846406800F0090048600121024800
:1045100000F0A4F810BD0000008001404800001029
:1045200070B505460C4616461A48854200D104E08F
:1045300040F2172118A001F0AAFE012C02DB062C84
:1045400000DC04E04FF4067113A001F0A0FE012E80
:104550000ED1E96C04F00700012801DA002004E024
:1045600004F10800012202FA00F00143E96410E0BE
:10457000E96C04F00700012801DA002004E004F1EE
:104580000800012202FA00F047F67C6282431140E3
:10459000E96470BD008001404C69625C44726976D8
:1045A0006572735C736F757263655C6C70633137D1
:1045B00078785F70776D2E630000000070B5054657
:1045C0000C4616461B48854200D104E04FF4FD71AD
:1045D00019A001F05CFE022C02DB062C00DC04E0DA
:1045E00040F2FB1114A001F052FE0EB1012E00D1D9
:1045F00004E04FF4FE7110A001F049FE76B9E96CB9
:1046000004F00700022801DA002001E00120A040A8
:1046100047F67C6282431140E9640AE0E96C04F0E9
:104620000700022801DA002001E00120A040014338
:10463000E96470BD008001404C69625C4472697637
:104640006572735C736F757263655C6C7063313730
:1046500078785F70776D2E630000000070B50546B6
:104660000C461248854200D103E05A2110A001F007
:104670000EFE012C12D0022C10D0042C0ED0082CCF
:104680000CD0B4F5807F09D0B4F5806F06D0B4F5B6
:10469000007F03D0102C01D0202C00D103E05B213F
:1046A00003A001F0F4FD2C6070BD0000008001400B
:1046B0004C69625C447269766572735C736F757283
:1046C00063655C6C7063313778785F70776D2E63EB
:1046D0000000000070B504460D460E48844200D12B
:1046E00003E0D6210CA001F0D2FD0DB1012D00D1C7
:1046F00003E0D72108A001F0CAFD012D04D16068B4
:1047000040F00800606003E0606800F00300606053
:1047100070BD0000008001404C69625C44726976A3
:104720006572735C736F757263655C6C706331374F
:1047300078785F70776D2E630000000000B589B057
:1047400001214020FFF74EFC01210C20FFF766FC01
:104750004648006C40F00E004449086400200346BF
:104760000122114600900220FFF740FD0020034681
:104770000122022100900846FFF738FD0020034681
:104780000122032100900220FFF730FD0120089054
:1047900007AA0021364800F087F9364836490860F4
:1047A000002302461946324800F0DEF901208DF858
:1047B000190000208DF8180001208DF81B00002042
:1047C0008DF81A0006A92A4800F058F800220221A4
:1047D0002748FFF7F3FE002203212548FFF7EEFEEE
:1047E000002204212248FFF7E9FE2348006842081E
:1047F000002302211E4800F0B7F91F480068420854
:10480000002303211A4800F0AFF91B480068420852
:1048100000230421164800F0A7F9012202211448C0
:10482000FFF77EFE012203211148FFF779FE0122E6
:1048300004210F48FFF774FE0D4800F0F5F901213F
:104840000B4800F0BDF801210948FFF743FF09209C
:104850008DF80800002003908DF8140004200490C7
:1048600002A8FFF7DFFD09B000BD000000C009206D
:104870000080014040420F004800001070B505461E
:104880000C464448854200D104E04FF4897142A0AF
:1048900001F0FDFC2078062800DC04E040F2131152
:1048A0003DA001F0F4FC607810B16078012800D1DF
:1048B00004E04FF48A7138A001F0E9FCE07810B10F
:1048C000E078012800D104E040F2151132A001F097
:1048D000DEFCA07810B1A078012800D104E04FF4EC
:1048E0008B712DA001F0D3FC607801280AD12078CB
:1048F00000F0070000EB400101208840696908438F
:1049000068610CE0207800F0070000EB4001012016
:1049100088402A4921EA0000696908406861E07816
:1049200001280CD1207800F0070000EB4000401C6B
:10493000012101FA00F06969084368610CE0207800
:1049400000F0070000EB4000401C012181401B48A3
:104950008843696908406861A07801280CD12078F3
:1049600000F0070000EB4000801C012101FA00F07C
:104970006969084368610CE0207800F0070000EBEB
:104980004000801C012181400C488843696908402F
:10499000686170BD008001404C69625C4472697658
:1049A0006572735C736F757263655C6C70633137CD
:1049B00078785F70776D2E6300000000FFFF1F00A6
:1049C00070B504460D460E48844200D103E0EE2146
:1049D0000CA001F05CFC0DB1012D00D103E0EF2132
:1049E00008A001F054FC012D04D1606840F00100E2
:1049F000606003E0606800F00A00606070BD000065
:104A0000008001404C69625C447269766572735C37
:104A1000736F757263655C6C7063313778785F7043
:104A2000776D2E630000000070B505460C461448F3
:104A3000854200D103E0412112A001F028FC012CA5
:104A400012D0022C10D0042C0ED0082C0CD0B4F5AF
:104A5000807F09D0B4F5806F06D0B4F5007F03D015
:104A6000102C01D0202C00D103E0422105A001F040
:104A70000EFC2868204008B1012070BD0020FCE732
:104A8000008001404C69625C447269766572735CB7
:104A9000736F757263655C6C7063313778785F70C3
:104AA000776D2E63000000002DE9F04104460E46AC
:104AB00017462348844200D103E09A2121A001F047
:104AC000E6FB0EB1012E00D103E09B211DA001F0F9
:104AD000DEFBB8463D463F20206000206060206736
:104AE0006061A062E064206526B9D8F80400401E29
:104AF000E06022E0012E20D1687810B168780128AA
:104B000000D103E0B3210FA001F0C1FB28780128F8
:104B100005D02878022802D02878032800D103E0A5
:104B2000B42108A001F0B3FB687800F003012878F5
:104B300061F39F00216F08432067BDE8F08100000A
:104B4000008001404C69625C447269766572735CF6
:104B5000736F757263655C6C7063313778785F7002
:104B6000776D2E63000000002DE9F04104460E46EB
:104B700015461F462248844200D104E04FF4CA7112
:104B800020A001F084FB062E00DC04E040F2951129
:104B90001CA001F07CFB0FB1012F00D104E04FF409
:104BA000CB7118A001F073FB072E13D2DFE806F0DB
:104BB0000406080A0C0E1000A5610BE0E56109E08F
:104BC000256207E0656205E0256403E0656401E0B5
:104BD000A56400BF00BF216D072E02DA0120B0409E
:104BE00000E00020014321653FB9606840F0020009
:104BF0006060606800F009006060BDE8F08100005E
:104C0000008001404C69625C447269766572735C35
:104C1000736F757263655C6C7063313778785F7041
:104C2000776D2E630000000010B5044608488442EA
:104C300000D104E04FF4817106A001F028FB606808
:104C400040F002006060606800F00900606010BD24
:104C5000008001404C69625C447269766572735CE5
:104C6000736F757263655C6C7063313778785F70F1
:104C7000776D2E630000000010B5FFF7BFFB00F05A
:104C8000F9F8FFF733FBFFF759FD00F063FA10BDA9
:104C900001463020084A10600848C0F8101200BFD2
:104CA00005480838006800F020000028F8D00248C5
:104CB0000C3000687047000008C2005000C000506F
:104CC00030B5ADF5017D05464FF4007101A8FDF743
:104CD000BFFC2846FFF717FA60B14FF4007201A934
:104CE0002846FFF71BFA044624B1214601A8D5F84F
:104CF000242490470DF5017D30BD000010B500F073
:104D0000B1F80448006820B102480068401E01491B
:104D1000086010BD5000001020204B4908604B482F
:104D2000D0F8A00100F0200030B100BF4648006874
:104D300000F040000028F9D0032043499C39086066
:104D400000204249C1F8A8013F490C310860012008
:104D50003D49943908603E483C4984310860AA20A6
:104D60003A498C310860552008600120374980316C
:104D70000860AA2035498C31086055203349C1F8B4
:104D80008C0000BF31488830006800F08060002847
:104D9000F8D003202D4980310860AA202B49C1F8A2
:104DA0008C00552029498C31086000BF2748883085
:104DB000006800F04070B0F1407FF7D12320234914
:104DC000A4310860AA202149C1F8AC0055201F4930
:104DD000AC31086001201D49A0310860AA201B49A0
:104DE000AC31086055201949C1F8AC0000BF174824
:104DF000A830006800F480600028F8D00320134930
:104E0000A0310860AA201149C1F8AC0055200F4913
:104E1000AC31086000BF0D48A830006800F4407055
:104E2000B0F5407FF7D10B480849C4310860002035
:104E30000649C1F8C8010846006820F4704040F4F3
:104E40008040086070470000A0C10F4000C00F40C4
:104E500063000500DE8728040148006870470000F1
:104E60005400001002480068401C01490860704767
:104E70005400001030B51349481EB0F1807F01D3B3
:104E800001201BE0481E4FF0E022506150171F2206
:104E9000002807DAD3061D0E0B4B00F00F04241F69
:104EA0001D5503E0D3061C0E084B1C5400BF002008
:104EB0004FF0E022906107201061002008B100BF90
:104EC000FEE730BDA086010018ED00E000E400E040
:104ED00010B501214FF0402000F00BF820B1012166
:104EE0004FF0402000F001F810BD02680A43026054
:104EF000704702461068084008B101207047002042
:104F0000FCE770B50446204600F00EF805460DB9E2
:104F1000002070BD6068A84201D90020F9E7204652
:104F200000F029F80120F4E770B50446207A08B9AA
:104F3000002070BD207A012801D00020F9E7FFF79A
:104F40008BFF05462068A84204D92068C0F1FF30D5
:104F5000461901E020682E1A3046EAE70022026076
:104F600041600272704710B50446FFF775FF20607C
:104F70000120207210BD00210172704770B50948F0
:104F800000F06EF8054605F00E06062E08D105481D
:104F900000F09AF8044604F09E040CB100BFFEE74E
:104FA00070BD000000C0004008B52848806800902F
:104FB000009800F0040018B9009800F00C00A8B1A7
:104FC0000EE022480178224890F88020D0F8800036
:104FD000401C1F4BC3F8800002F07F001A4611549A
:104FE0001A48007D00F001000028EAD1009800F086
:104FF0000200F8B1174890F88000164991F8841023
:10500000401A00F07F0090B1124890F88410D0F858
:105010008400401C0F4AC2F8840001F07F00114652
:10502000085C0A49087000200B49086002E0012072
:10503000094908600548007D0449097E40EA0120CD
:105040004EF21E0108400549088008BD00000140DD
:10505000500E0010C80D0010B8000010BC00001069
:1050600010B504460B48844208D00B48844205D052
:105070000A48844202D00A48844200D104E040F247
:10508000EB2108A001F005F9A06840F2CF310840FB
:1050900010BD000000C00040000001400080094039
:1050A00000C009404C69625C447269766572735C49
:1050B000736F757263655C6C7063313778785F7598
:1050C0006172742E6300000010B504460C488442DF
:1050D00008D00C48844205D00B48844202D00B48CB
:1050E000844200D104E04FF4357109A001F0D1F8F9
:1050F0000448844201D1007D10BD207DFCE7000002
:1051000000C00040000001400080094000C009408C
:105110004C69625C447269766572735C736F757218
:1051200063655C6C7063313778785F756172742E7B
:105130006300000030B504462046FEF7BDFF044979
:1051400041EA00458913284601F038F830BD0000D7
:10515000000540001FB500F0BBF86420FDF75AF8C9
:1051600018208DF8000007200290002001900120F7
:105170008DF80C006846FFF755F900F047FB012059
:1051800000F052F800BF024800780028FBD01FBD95
:105190008700001010B503469878FEF78DFF04468F
:1051A0000D4800680121A14008430C49C1F84402A0
:1051B0000948001D04609888C1F84C0200BF0648E9
:1051C0004438006800F480700028F8D04FF48070F4
:1051D00001493C39086010BD44C2005000C0005075
:1051E00010B504460CB1012000E000204FF480729D
:1051F00042EA0041094800F0E1FF03200849086045
:1052000000BF07484438006800F480700028F8D0D8
:105210004FF4807002493C39086010BD0005D80089
:1052200044C200507047000010B504460CB1012084
:1052300000E000204FF4807242EA0041014800F093
:10524000BDFF10BD0005FE0010B50C488088082881
:1052500001DD082401E009488488084822460168E5
:10526000802000F067FF044604480068204403499A
:10527000086008468088001B888010BDA4000010CC
:1052800010B508480168002000F006FB04460548F8
:10529000006820440349086008468088001B888015
:1052A00010BD0000A40000107047000030B5044697
:1052B0002046FEF701FF044941EA0045034928461C
:1052C00000F07CFF30BD0000000540000001200020
:1052D00008B50C48006840F0C0400A49086000204A
:1052E000034602461D210090FEF780FF0020034682
:1052F00002461E210090FEF779FF4FF0C0400149A1
:10530000C86108BD00C0092030B504462046FEF73C
:10531000D3FE044941EA00458913284600F04EFFB8
:1053200030BD00000005400010B50446082C6FD2C7
:10533000DFE804F06E04F2F16E6EF0EF00F082FE32
:10534000CD490978C809FFF7AFFFCB48C088CB49E2
:105350008880C9480078C0F3411010B101287BD182
:1053600092E0C54840780C2877D2DFE800F0060DBF
:105370008A158A1D333A41555E8300F079FB00B9E6
:10538000FBE0FFF761FF7DE0002000F0DBFB00B9F0
:10539000F3E000F05FFE75E0012000F0D3FB00B900
:1053A000EBE000F057FE6DE000BFB348007800F07E
:1053B0001F0030B9B048807840F08000B0490870D4
:1053C00001E0002001E000BF012000B9D5E000F0BD
:1053D00041FE57E000F0F0FA00B9CEE0FFF734FFED
:1053E00050E0002000F01CFE0020A449888049E025
:1053F00000BFA148007800F01F0018B9A1489F49DC
:10540000086001E0002001E000BF012008B9B4E01D
:105410002FE1FFF719FF35E000F00AFC00B9ACE01E
:1054200000F018FEFFF7FEFE2CE000BF9248007867
:1054300000F01F00012814D19248007870B18E4806
:10544000007991490978884208DA8B4800798F49B8
:1054500008448A49086003E08EE012E0002004E07E
:1054600001E0002001E000BF012000B985E0FFF766
:10547000EBFE07E000F0BCFC00B97EE000F0EAFDC6
:1054800000E07AE000BF7FE07B48007800F01F007A
:1054900020B1012803D002286CD16AE06DE0764883
:1054A000007918B174480079012861D172484078B8
:1054B000042833D007DC78B1012811D0022819D094
:1054C000032854D11AE0202831D0212833D02228B3
:1054D0003BD023284BD141E06D48684908604AE041
:1054E000FEF7DCFC28B16A4864490860FFF7ACFEAF
:1054F00041E03CE06648614908603CE05E4948881C
:10550000FEF7C9FC48B162485C490860FFF79CFEA1
:1055100031E0AAE0A5E08BE038E028E05649488871
:10552000FEF7B6FC10B100F095FD24E01FE05848EE
:10553000524908601FE0FEF7B3FC28B154484F49B8
:105540000860FFF781FE16E011E04B494888FEF73E
:1055500035FD10B100F07EFD0DE008E046494888B9
:10556000FEF724FD10B100F075FD04E000BF00BFA0
:1055700003E002E001E007E000BF802000F050FD02
:1055800000203E49888000BF00BF72E03A480078A2
:10559000C00980BB3948808870B3FFF771FE374877
:1055A000808848BB34480078C0F3411010B101280E
:1055B00039D100E0E1E73048007800F01F0020B169
:1055C000012803D002282CD12AE0D6E72A48007906
:1055D00018B129480079012821D12748407820B105
:1055E00002280BD0202819D111E0FEF7E2FC20B1EF
:1055F00000F030FD16E018E019E00FE01E49488881
:10560000FEF7D9FC10B100F025FD0BE006E0FEF737
:10561000D8FC10B100F01EFD04E000BF00BFACE7F5
:10562000ABE7AAE700E0A8E701E000F01BFD20E0FF
:10563000114800780121B1EBD01F02D1FFF704FE21
:105640000EE00F48007800F0800048B10C48007868
:1056500000F07F000A4908700846007800F0C8FC96
:1056600007E00020FFF766FD03E08020FFF762FD02
:1056700000BF00BF10BD0000AC000010A40000106F
:1056800086000010870000109400001095000010A4
:105690009900001070B50546032D0BD1FEF720FCD4
:1056A000044605480088A04203D003480480FEF762
:1056B0005DFC00BF00BF70BDB400001010B5044613
:1056C000022C02D0032C06D102E0FEF7D3FB02E04D
:1056D000FEF7CAFB00BF00BF10BD000010B50248B6
:1056E000FFF7EEFA10BD00009008001010B50A2177
:1056F0000348FEF7F1FC03480149C1F8240410BD3A
:1057000090080010055900002DE9F0473B48D0F8FB
:10571000009009F00800E8B1082038490831086015
:10572000374800F037FD3748FFF7B2FA054605F075
:10573000100018B100F0FEFB00F054FC05F008006A
:1057400038B105F0040010B100F094FC01E000F065
:105750004DFC51E009F0040000284CD04FF0000847
:1057600026483030076800243EE0474500D13DE040
:105770000120A040384058B30120A04040EA08086A
:1057800066080120A0401D493831086000BF1B4851
:10579000006800F020000028F9D01848143005688F
:1057A00004F00100A8B954B905F0040038B1164856
:1057B000006820B1144801680120884713E01248AE
:1057C00050F8260020B1104850F8261002208847D3
:1057D00008E00D4850F8260020B10B4850F826107C
:1057E0000320884700BF641C202CBED300BF0420C8
:1057F00002490831086000BFBDE8F08700C20050D0
:105800000005FE000002FE00DC64000000B51D483B
:10581000406820F070501B4948600846406840F0DE
:10582000A05048600846C068174908401549C8603C
:105830000846C068154908431249C860084600690F
:1058400020F4402008610846006940F48020086187
:105850000F48006840F000400D49C439C1F8C40049
:105860001A200C49086000BF0A48001D006800F0BB
:105870001A001A28F8D100F05DFB002000F0B8FBF8
:1058800000BD000000C00240CFFFFFCF100000208D
:10589000C4C00F40F4CF0050F0B505460F4605F0E8
:1058A0000F00012101EB80001349086000BF12487E
:1058B0000838046804F400600028F8D0C4F3090430
:1058C000002605E00D48D0F8180238603F1D761C10
:1058D000E01CB6EB900FF5D300200749086041F2B9
:1058E0004820284100F0010018B90549284600F079
:1058F00087FC2046F0BD000028C2005000C00050C8
:105900000005F2002DE9F04705468946284600F0DB
:10591000B3FB1CA12846FCF73CFE002830D0281D14
:10592000FCF72AFE04461948B0FBF4F7384600F0AD
:1059300019FD0646214616A000F09EFB304600F0F9
:10594000E5FC07463A460B4616A000F095FB0023FF
:10595000224619461748FFF707F96208002302217B
:105960001448FFF701F96208002303211148FFF7EB
:10597000FBF86208002304210E48FFF7F5F800BF8A
:10598000BDE8F0876E756D3D0000000000E1F50593
:1059900056616C6F72206465206D7230203D202549
:1059A0006400000056616C6F722064652046203DE3
:1059B000202566000080014010B52848007800F0DE
:1059C0001F0010B101283ED13AE02448C0780128D8
:1059D00004D0022807D003282ED118E02048214CFB
:1059E000206012232AE02049002204E0087808B150
:1059F00048880144521C194880789042F6D10878B2
:105A000008B9002010BD174801604B8816E01749FF
:105A1000002204E0087808B108780144521C0F48BD
:105A200080789042F6D1087808B90020EAE70D485E
:105A300001600068037801E00020E3E700BF04E0B4
:105A400000BF0020DEE70020DCE700BF05488088BB
:105A5000984201D9034CA3800120D3E7AC00001089
:105A60001E640000A4000010306400007464000094
:105A70002C48007800F01F0020B1012806D0022831
:105A80004BD117E02848294B186048E02848007897
:105A900068B124480079274B1B78984207DA002028
:105AA000254B188018801846204B186001E0002014
:105AB000704734E01B48007900F08F0101F080004E
:105AC00028B101F00F034FF48030984001E001202D
:105AD000884002461648007810B901F00F00C8B996
:105AE000164800681040A8B115480068104008B179
:105AF000012000E00020104B188011480068104081
:105B000008B1012000E000200B4B18801846074B1D
:105B1000186001E00020CBE701E00020C8E700BFEB
:105B20000120C5E7AC00001084000010A4000010A4
:105B300087000010940000109900001088000010E9
:105B40008C00001070B506463348007800F01F0046
:105B500020B101281DD0022858D11CE02E484088D1
:105B6000012813D146B100F0E3FA2C48008840F038
:105B700002002A4908800BE0002000F0D9FA2748EB
:105B8000008820F002002549088001E0002070BD57
:105B90003EE00020FBE72048007900F08F0404F08D
:105BA000800028B104F00F014FF48030884001E0FC
:105BB0000120A04005461A48007820B304F00F00E9
:105BC00008B3184800682840E8B113484088C0B9B5
:105BD00046B1204600F024FA1348006828431249D1
:105BE000086012E011480068284008B10120CEE7A3
:105BF0002046FFF79FFA0C480068A8430A4908604E
:105C000003E00020C3E70020C1E701E00020BEE779
:105C100000BF0120BBE70000AC00001084000010B2
:105C200087000010880000108C0000109000001009
:105C30002DE9F04100276548007800F01F0000289A
:105C40007ED16248807800287BD0614D83E06878FF
:105C5000022804D0042853D0052876D152E0687970
:105C60005A498978884245D15848807859490870FE
:105C7000287959490870002403E000205749085545
:105C8000641C042CF9D3012414E00120A0405449E1
:105C90000968084010B12046FFF708FB4FF4803038
:105CA000A0404F490968084018B144F08000FFF750
:105CB000FDFA641C102CE8D34FF00110484908602D
:105CC000002048490860484908600120FFF788FA29
:105CD000E87900F0400030B14448008840F001000D
:105CE000424908800BE04148008820F001003F490C
:105CF000088004E02E466888064435462BE024E000
:105D0000EF7822E007BBA87800F08F0404F0800051
:105D100028B104F00F014FF48030884001E00120E9
:105D2000A04080462E48006840EA08002C490860E0
:105D30002846FFF72FFA2046FFF7E6FA204601E053
:105D40003FE00DE000F03EF900BF00BF2E4628788E
:105D50000644354600BF287800287FF478AF26E057
:105D600000201C490870012414E00120A0401C49B7
:105D70000968084010B12046FFF798FA4FF48030C8
:105D8000A04017490968084018B144F08000FFF7A7
:105D90008DFA641C102CE8D34FF0011010490860F4
:105DA00000201049086010490860FFF719FA0748F9
:105DB000807808490978884202D00020BDE8F08147
:105DC00001E00020FAE700BF0120F7E7AC00001077
:105DD000306400008700001094000010950000104F
:105DE000880000108C00001090000010840000104B
:105DF0002DE9F84F4FF00008C14600200090824680
:105E00004648007800F01F0001287DD14448007802
:105E100010B90020BDE8F88F4FF0000B414C71E045
:105E20006078022804D004280DD0052864D122E02F
:105E300060793B490978884204D026466088064448
:105E400034465FE058E094F8028094F803904FF0F5
:105E5000000A3248007940450CD1304880784845E6
:105E600008D14FF0010B304810F8080000902E497F
:105E700001F8089040E02948007940453BD1A078DE
:105E800000F08F0707F0800028B107F00F014FF4F2
:105E90008030884001E00120B84005461F488078E6
:105EA000484515D12148006828432049086020480A
:105EB0000068A8431E4908602046FFF76BF9384682
:105EC000FFF722FA384600F07DF84AEA050A12E0A8
:105ED000009881450FD10AEA050060B913480068AF
:105EE000A8431249086012480068A8431049086096
:105EF0003846FFF7DBF900BF00BF2646207806448E
:105F0000344600BF207800E002E0002888D101E09C
:105F100000207FE700BF58467CE70000AC0000107F
:105F20008700001030640000950000108800001009
:105F30008C00001000201249086008201149C1F8A7
:105F40004C0201200E49086008200E49C1F84C029D
:105F500000BF0B484838006800F480700028F8D073
:105F60004FF0FF300649103908600649C1F8340285
:105F70000349403908600C200249C1F80402704707
:105F800048C2005000C0005000200849088008495D
:105F90000870084908704FF0011007490860002098
:105FA0000649086006490860704700008400001038
:105FB0008600001087000010880000108C00001080
:105FC0009000001030B504462046FEF775F80449ED
:105FD00041EA00458913284600F0F0F830BD000082
:105FE0000005400010B5FFF7CFFF10BD704700005F
:105FF00010B5044644F080004FF4807242EA00413C
:10600000064800F0DBF844F080004FF4807242EA6A
:106010000041024800F0D2F810BD00000005D00099
:1060200030B504462046FEF747F8044941EA0045EA
:106030000349284600F0C2F830BD000000054000CA
:106040000001010010B502490020FFF725FC10BD3A
:10605000AC00001010B500221146802000F06AF854
:1060600010BD000010B502490020FFF715FC10BD5F
:1060700099000010704700000FB438B505A80090D3
:106080004FF47A710D48009B049AFCF7E9F80CA1D3
:106090000A48FCF7AFFA0948FCF78DFA0446214696
:1060A000064800F00FF84FF47A710448FCF7AEFA96
:1060B0000020009038BC5DF814FB0000A80400101C
:1060C0000D0A00002DE9F04707460D462E463F20F9
:1060D000B6FBF0F934464FF0000822E03F2C0FD910
:1060E000012012490870301BC1193F22822000F0A4
:1060F00021F83F3C00BF0D4800780028FBD10EE09E
:1061000001200A490870301BC1192246822000F084
:1061100011F800BF054800780028FBD103E008F122
:106120000108C845DAD900BFBDE8F0877800001043
:1061300070470000F0B506460D46144606F00F0005
:10614000022101EB80000D4908600D48C0F824428F
:10615000002705E0286809490C3908602D1D7F1CBF
:10616000E01CB7EB900FF5D3002004490860054907
:10617000304600F045F82046F0BD000028C200502F
:1061800000C000500005FA0010B5FFF7AFFAFEF7A7
:106190001BF910BD1021074A11600749C1F8100210
:1061A00000BF04490839096801F010010029F8D03E
:1061B0007047000008C2005000C0005010220E4B73
:1061C0001A600E4AC2F8100200BF0B4A083A126861
:1061D00002F01002002AF8D01022074B1A60074A7A
:1061E000C2F8101200BF044A083A126802F0100206
:1061F000002AF8D07047000008C2005000C00050CC
:1062000010B504460B461020114908602046FDF7E2
:1062100053FF4FF4A06141EA00400E49C1F810025B
:1062200000BF0B480838006800F010000028F8D0C4
:106230001020074908600748C0F8103200BF044822
:106240000838006800F010000028F8D010BD0000E9
:1062500008C2005000C00050490050EAC12018BFD9
:1062600004204A0D18BF40F0010040F2FF72B2EB6B
:10627000515F08BF40F00200012808BF05207047A9
:1062800030380A2801D2012070470020704700BF33
:10629000FEE700BFFEE7FDF7F5FEFFF775FF01E043
:1062A000FEF7A6F8FCE7000010B500290AD0087830
:1062B000002807D005487844FCF7F2F9002801D0FF
:1062C000002010BD0248784410BD00008603000085
:1062D0007E03000010B500290AD00878002807D0F6
:1062E00005487844FCF7DCF9002801D0002010BDF7
:1062F0000248784410BD0000760300006E030000E1
:106300000808A0F500114FEA3101704743004FEA39
:10631000D30C4FEA3C0C43401FBF40070CF16051C7
:1063200013F0FE4F70471CF0006F03D100200CF0FB
:10633000004170470CF0004343EA507010B540EA4A
:10634000CC0000F022F800BF000000924FEA0001EC
:10635000FFF7D6BF4FF000414FF00000A1F500213C
:1063600070470000B0FA80F310FA03F2C3F19D0306
:106370000AD0D90501EB1220530638BF704700F14F
:10638000010008BF20F0010070470EF1020E2EF050
:10639000030E5EF8044B244204D44FEA4102B2F1EA
:1063A0007F4F11D84FEA4003B3F17F4F0CD80ED185
:1063B0004FEAD07CB2F17F4F0CEB4C0C0CF1020C8D
:1063C00008BF4CEBD17C04E04FF0080C01E04FEA31
:1063D000D17C0CEB4C0324FA03F404F00704B4F171
:1063E000040C06D20EEB840CBDE810404CF0010CFE
:1063F0006047DFE80CF0070802024FF00040A0F50C
:10640000800010BD0846420018BFD2F1807288BFDC
:1064100000F0004010BDFCF70CBBFCF7C9BD120139
:10642000000202000008C91F02200001010203014E
:106430000902430002010080320904000001020247
:10644000005E05240010010524010101042402025C
:10645000052406000107058103100002090401005C
:10646000020A00005E0705020240000007058202E2
:1064700040000000040309041C034E0058005000B3
:106480002000530045004D00490043004F004E00DE
:106490004400200024034E005800500020004C000F
:1064A000500043003100370078007800200056008B
:1064B00043004F004D0020001A03440045004D00EA
:1064C0004F0030003000300030003000300030002D
:1064D00030000A03560043004F004D0029530000CE
:1064E00095560000BD5600000000000000000000AE
:1064F000000000000000000000000000000000009C
:10650000000000000000000000000000000000008B
:1065100000000000000000000000000030313233B5
:1065200034353637383941424344454640305800C7
:1065300030313233343536373839616263646566F9
:106540004030780004000008000000000000000255
:10655000000100001000000000000000000000002A
:1065600030313233343536373839616263646566C9
:106570007870003031323334353637383941424360
:10658000444546585000000002400000000000A0B2
:106590000000000005400000000000C800000000EE
:1065A0000C4000000000409C00000000194000006A
:1065B0000020BCBE0000000034400000BFC91B8E9C
:1065C00000000004B5400000504BCFD06607E2CF7A
:1065D000010000006C4100003E8251AADFEEA734AA
:1065E00001000000D9420000DCB5A0E23A301F975C
:1065F000FFFFFFFFB4450000FD25A0C8E9A3C14F80
:10660000FFFFFFFFFF3F00000000008000000000D0
:10661000FF3F0000000000800000000068670000ED
:1066200000000010C00000000821000028680000E1
:10663000C000001078120000242100001C0000009F
:1066400043000000F8FFFFFF0C0000000E000000F8
:106650000F0000002E0000001001000043000000A9
:10666000F8FFFFFF00404040404040404040414173
:106670004141414040404040404040404040404017
:1066800040404040400502020202020202020202B1
:1066900002020202022020202020202020202002AE
:1066A000020202020202909090909090101010103E
:1066B00010101010101010101010101010101010DA
:1066C000020202020202888888888888080808086E
:1066D000080808080808080808080808080808083A
:1066E0000202020240000000000000000000000062
:1066F000000000000000000000000000000000009A
:106700000000000000000000000000000000000089
:106710000000000000000000000000000000000079
:106720000000000000000000000000000000000069
:106730000000000000000000000000000000000059
:106740000000000000000000000000000000000049
:106750000000000000000000000000000000000039
:106760000000000000000000002D310180C3C901BD
:10677000005A620280F0FA0200879303801D2C0405
:1067800000B4C404804A5D0500E1F5050000000086
:1067900001020101010101010002020201010101E6
:1067A00001010201010201010101010101010000D9
:1067B00000000000000000000000000000000000D9
:1067C000000000002D4330305275010D00022105FC
:1067D00006010203F5000000FF00000000000000B9
:1067E00000802500000000080000010000000000FB
:1067F0000000000000000000000000000000000099
:106800000000000000000000000000000000000088
:106810000000000000000000000000000000000078
:08682000000000000000000070
:04000005000020CD0A
:00000001FF
